:020000040800F2
:1000000000050020A10100088325000871240008D4
:100010008125000825080008152C000800000000B4
:100020000000000000000000000000003127000870
:100030002708000800000000852500083327000875
:10004000BB010008BB010008BB010008BB010008A0
:10005000BB010008BB010008BB010008BB01000890
:10006000BB010008BB010008BB010008BB01000880
:10007000BB010008BB010008BB010008BB01000870
:10008000BB010008BB0100086D070008BB010008A8
:10009000BB010008BB010008BB010008BB01000850
:1000A000BB010008BB010008BB010008BB01000840
:1000B000BB0100080000000000000000BB010008B8
:1000C000BB010008BB010008BB010008BB01000820
:1000D000BB010008BB010008092C0008BB01000897
:1000E000BB010008BB010008000000000000000088
:1000F0000000000000000000000000000000000000
:1001000000000000BB01000800000000BB01000867
:100110000000000000000000BB010008BB01000857
:10012000BB010008BB010008BB010008BB010008BF
:10013000BB010008000000000000000000000000FB
:10014000BB010008BB010008BB0100080000000063
:10015000BB010008BB010008BB010008BB0100088F
:10016000BB010008BB010008BB0100080000000043
:10017000BB010008BB0100080000000000000000F7
:10018000BB010008BB010008BB010008DFF80CD070
:1001900000F06AFA004800475135000800050020C9
:1001A0000648804706480047FEE7FEE7FEE7FEE711
:1001B000FEE7FEE7FEE7FEE7FEE7FEE7AD27000805
:1001C0008D0100082DE9F05F0546002092469B4610
:1001D00088460646814640241BE02846414647465D
:1001E000224600F06DF853465A46C01A914110D38A
:1001F00011461846224600F054F82D1A67EB010804
:100200004F4622460120002100F04BF817EB000971
:100210004E41201EA4F10104DFDC484631462A4647
:10022000434600F000B830BCBDE8C09FD2B201E048
:1002300000F8012B491EFBD270470022F6E710B5EB
:1002400013460A4604461946FFF7F0FF204610BD44
:1002500000F0004230F000400AD0C10D01F560719D
:10026000C0F3160042EA0151C2084007114370472B
:1002700000200146704730B50B4601460020202281
:10028000012409E021FA02F59D4205D303FA02F5A3
:10029000491B04FA02F52844151EA2F10102F1DC03
:1002A00030BD202A04DB203A00FA02F1002070471A
:1002B0009140C2F1200320FA03F3194390407047A4
:1002C000202A04DB203A21FA02F00021704721FAAB
:1002D00002F3D040C2F12002914008431946704712
:1002E0002DE9FE4F804681EA0300C00F0C460090C6
:1002F00021F0004123F00045B8EB0200A94105D2EE
:100300004046214690461C460B46024623F00040DC
:10031000104347D0270DC7F30A00C3F30A510290D8
:10032000401A019040286BDAC3F3130040F4801B9D
:100330000098924620B10023D2EB030A63EB0B0B2B
:1003400001985946C0F140025046FFF7AAFF064601
:100350000D4650465946019A00F098F910EB0800F6
:100360006141002487EA115284EAE7731A4340D0BE
:10037000009A62B3019A012A4FEA075215DC001B6A
:1003800061EB02014FF0004202EA0752CDE9004260
:10039000001C41F5801132462B4600F098F903B05D
:1003A00000F045B840462146F9E7001B61EB020129
:1003B000001C41F5801300185B412018A2F50017BE
:1003C00047EB030140EAD570B6196D4111E06D08A5
:1003D0004FEA360645EAC0754FEA0752001B61EB4B
:1003E0000201001C41F5801149084FEA3000001954
:1003F000514132462B4603B000F01CB800F058B90A
:100400000098012240000023D0EB020263EBE0736E
:10041000009821464FEAE074B8EB000061EB04015C
:10042000E9E783F000435BE781F0004158E730BC27
:10043000BDE8C08F30BCBDE8C04FFFF7DFBF2DE97E
:10044000FE4F81EA030404F0004421F000410094CF
:100450004FF0000B23F0004350EA01045ED052EA53
:1004600003045BD0C3F30A54C1F30A552C44A4F22D
:10047000F3340194A0FB0254C1F3130141F4801141
:10048000C3F3130343F4801301FB024400FB034E48
:10049000840A970A44EA815447EA8357A4FB076811
:1004A00002958D0A05FB07854FEA932C04FB0C543B
:1004B0002705029D4FEA065847EA1637B5EB0805AF
:1004C0006EEB070C870E920E47EA811742EA831201
:1004D000A7FB0201B6EB0B0164EB00042B0D43EA12
:1004E0000C335E1844EB1C50DA465146E7FB020120
:1004F000C5F313044FEA0B3343EA14534FEA0432B3
:10050000019C43EA0603A4F10C040294009CCDE98B
:1005100000B400F0DCF803B000F003B8002001469E
:10052000F9E730BCBDE8C08F2DE9F04D81EA030446
:1005300004F0004B21F0004514464FF0000A23F070
:10054000004150EA050220D054EA01021DD0C5F353
:100550000A570246C5F31303C1F31300C1F30A5649
:1005600040F4801543F48013A7EB0608101BD64611
:1005700008F2FD3873EB050002D308F1010801E031
:1005800092185B41B8F1000F03DA00200146BDE884
:10059000F08D00204FF48011064684460EE0171BB4
:1005A00073EB050705D3121B63EB050306434CEA07
:1005B000010C49084FEA300092185B4150EA0107EC
:1005C000EDD152EA030012D082EA040083EA050169
:1005D000084305D0101BAB4106D20122002306E0E0
:1005E00000224FF0004302E06FF0010253101AEBBB
:1005F00006004CEB085110EB0A0041EB0B01BDE883
:10060000F04D00F055B8C1F30A52C1F3130140F2A6
:10061000FF3341F480119A4202DA0020014670470C
:1006200040F233439A42A2F2334202DC5242FFF7D5
:1006300047BEFFF736BE000030B5041E71F100045E
:1006400004DB4FF00044404264EB0101141E73F1DF
:10065000000405DB1C464FF00043524263EB0403E9
:10066000994208BF904230BD064C074D06E0E06855
:1006700040F0010394E8070098471034AC42F6D3E9
:10068000FFF788FD80360008A0360008202A06DB28
:10069000CB17203A41FA02F043EAE07306E041FA50
:1006A00002F3D040C2F1200291400843194670473E
:1006B00010B5141E73F1000408DA401C41F100016A
:1006C00092185B411A4301D120F0010010BD2DE9C1
:1006D000F04D92469B4611B1B1FA81F202E0B0FAB8
:1006E00080F220329046FFF7DCFD04460F4640EAD8
:1006F0000A0041EA0B0153465A46084313D01146FB
:1007000053EA010019D0C8F140025046FFF7D8FD66
:1007100005460E46504659464246FFF7C2FD08437D
:1007200005D0012004E020463946BDE8F08D0020C8
:10073000054346EAE0762C4337430A986305E40A0A
:10074000A0EB08000022FD0A44EA47540A3002D513
:1007500000200146E9E7010510196941DDE9084576
:1007600000196941BDE8F04DA2E70000014800F022
:1007700069BA000018000020F8B504460020009077
:100780002068816811F0010F41D18168214A11422E
:100790002ED18168D5432940491C81601E4880685C
:1007A00000F0E07000020DD51C481D490068B0FB48
:1007B000F1F0401C00EB4000800000E0401E009083
:1007C0000028FBD100F026FE06461BE0816811F0F0
:1007D000010F03D181682940491C816000F01AFE95
:1007E000801B02280ED920680068C043C00709D0CA
:1007F000606D40F010006065A06D40F00100A065E4
:100800000120F8BD20680168C943C907DED1002076
:10081000F8BD00003F0000800003045010000020DD
:10082000400D0300FEE7704772B6FEE77047704761
:1008300070477047704700002DE9F84F00270446C5
:10084000009790F85000DFF8B0930D46B8460128A5
:1008500011D0012684F85060206801F014FE60B1C8
:10086000606D40F0200060655FF0010784F8508003
:10087000384600F0D7B90220FBE769680C2005294B
:1008800012D8022907D0032907D0042907D0052947
:1008900007D0062107E0686006E0122103E0182176
:1008A00001E04FF480716960D5E90021236800EA16
:1008B00091101844036B01F01F014FF01F0C0CFA4C
:1008C00001FCC2F3846223EA0C038A4013430363EE
:1008D000206801F0D8FD8246206801F0D0FD5AEA78
:1008E00000001DD1AA682968206801F0D8FD2068A1
:1008F0006969C268C2F3C102520091402A69042AA0
:100900000FD000EB82002B68026EDFF8F0C203F01C
:10091000F84302EA0C020B431A4342F0004101661D
:1009200072E0002101F0A5FD400320684FF00001B6
:1009300072D001F09EFD90FAA0F0B0FA80F1286824
:1009400042036ED090FAA0F0B0FA80F0814204D158
:1009500000221146206801F0B1FD0121206801F05C
:1009600088FD400320684FF001015DD001F081FD5A
:1009700090FAA0F0B0FA80F12868420359D090FABA
:10098000A0F0B0FA80F0814204D100220121206859
:1009900001F094FD0221206801F06BFD4003206806
:1009A0004FF0020148D001F064FD90FAA0F0B0FAD7
:1009B00080F12868420344D090FAA0F0B0FA80F0A9
:1009C000814204D100220221206801F077FD032139
:1009D000206801F04EFD400320684FF0030133D042
:1009E00001F047FD90FAA0F0B0FA80F128684203C8
:1009F0002FD090FAA0F0B0FA80F0814204D100220A
:100A00000321206801F05AFD2068816811F0010F70
:100A100022D0ACE000E004E001F02BFDC0F38461E3
:100A20008DE7C0F3846091E701F023FDC0F384619A
:100A3000A2E7C0F38460A6E701F01BFDC0F3846168
:100A4000B7E7C0F38460BBE701F013FDC0F3846136
:100A5000CCE7C0F38460D0E72A7B296850F8B03F28
:100A6000C1F3120C23EA0C0302F0180C644A22FAB8
:100A70000CF20A4013430360E968494577D12868BE
:100A800041031CD090FAA0F1B1FA81F1491C01F0A8
:100A90001F0109294FEA403132D8002912D000BF86
:100AA00090FAA0F1B1FA81F101F1010101F01F0109
:100AB00006FA01F609D100BFC0F3846109E0C0F372
:100AC0008461E3E7C0F38461EEE790FAA0F1B1FA44
:100AD00081F101F1010101F01F0146EA816102D1BA
:100AE000C0F3846003E090FAA0F0B0FA80F000F167
:100AF000010000F01F0000EB400041EA005132E02D
:100B000000290ED090FAA0F1B1FA81F101F10101B2
:100B100001F01F0106FA01F606D100BFC0F384619F
:100B200006E0C0F38461F1E790FAA0F1B1FA81F137
:100B300001F1010101F01F0146EA816102D1C0F318
:100B4000846003E090FAA0F0B0FA80F000F10100B8
:100B500000F01F002B4A00EB400002EB005041EA7E
:100B6000000141F00071AA68206801F098FC264855
:100B70002A6802423FF47AAE24488168244D254B0E
:100B800001F0E071AA421BD10D0219D422689A42E9
:100B90007FF46CAE826841F4000122F0E0720A43F7
:100BA00082601D481D490068B0FBF1F0401C00EB5D
:100BB0004000800000E0401E00900028FBD155E678
:100BC000174DAA4207D1CD0105D422689A42F6D129
:100BD00041F080710AE06FF00045EA42EFD14A022D
:100BE000EDD422689A42EAD141F48001826822F071
:100BF000E0720A43826039E600007F4000F0FF03A4
:100C0000FFFF0700000020FE0000088000030450E2
:100C1000000052C70000045010000020400D0300E7
:100C2000000084CB18BCBDE8E08F000010B500F0D8
:100C300006F80149086010BD0000002070470068F8
:100C4000006C70472DE9F04104460068066845686D
:100C5000B0070ED5A8070CD5606DC00603D4606D33
:100C600040F4006060652046FFF7E0FD2168022047
:100C70000860700701D5680703D4300725D5280719
:100C800023D5606DC00603D4606D40F400706065CC
:100C9000206801F0FCFB90B12068C16889040ED483
:100CA000016809070BD501F0EEFB00287DD0606DCF
:100CB00040F010006065A06D40F00100A065204686
:100CC000FFF7B4FF21680C200860B00601D5A80624
:100CD00003D4700631D568062FD5606DC00603D4E5
:100CE000606D40F4005060652068C16C11F0C00F69
:100CF0007DD0002701F0CBFB21680246C868B7B160
:100D0000830102D59AB1820411D40A6852060ED525
:100D100080020CD4084601F0B2FB00287FD0606D41
:100D200040F010006065A06D40F00100A065204615
:100D3000FFF77DFD21686020086030060BD528068E
:100D400009D5606D40F480306065204600F054F9AC
:100D5000216880200860F0050CD5E8050AD5606D93
:100D600040F4003060652046FFF763FD21684FF4D2
:100D700080700860B0050CD5A8050AD5606D40F4F8
:100D8000802060652046FFF755FD21684FF4007014
:100D90000860F00617D5E80615D5606B18B1206815
:100DA000C068C0070CD0606D00E024E040F48060B3
:100DB0006065A06D40F00200A0652046FFF73EFF91
:100DC00021681020086070053BD5680539D5606D35
:100DD00040F480406065A06D40F00800A065216887
:100DE0004FF4806008602046BDE8F04101E014E067
:100DF00015E0FFF71DBD2068416821F00C0141603E
:100E0000606D20F480706065606DC0043FF557AF81
:100E1000606D40F00100606551E701276AE72068D6
:100E2000416821F060014160606D20F48050606590
:100E3000606DC0053FF57BAF606D40F001006065FF
:100E400075E7BDE8F0810000F8B54FF0000504003B
:100E50002E46009502D0606D10B107E00120F8BD6C
:100E6000204600F0CBF8A66584F8506020688168C1
:100E7000C1F3407119B18168574A114081602068FF
:100E80008168C1F3007189B98168544A114041F009
:100E900080518160524853490068B0FBF1F0400036
:100EA000801C00E0401E00900028FBD12068816873
:100EB000C1F3007141B9616D41F010016165A16D2F
:100EC00041F00101A165012501F0DDFA616DC9065E
:100ED00000D430B1606D40F01000606501252846F7
:100EE000F8BD606D20F4807040F0020060652068FD
:100EF000806810F0010F0BD13B48806810F0010FA3
:100F000006D13A486168826822F47C120A43826002
:100F1000E168606B627E0843A16841EA42310843A0
:100F200094F8201040EA0140012904D1A18C304AF4
:100F300002EB41410843A16A29B101F47071E26AF0
:100F4000014342EA01002168CA682A4B1A40024361
:100F5000CA60206801F097FA0646206801F08FFA0F
:100F6000304315D1207E94F83010800340EA4100D0
:100F70002168CA6844F202039A430243CA6094F8A3
:100F8000380001280CD02068016921F001010161BD
:100F9000206901282068016B21F00F0111D013E0B6
:100FA000D4E90F010843D4E9111211430843216821
:100FB0000A6940F2FC739A43104340F00100086153
:100FC000E6E7E269521E11430163606D20F0020002
:100FD00040F00100606582E7C0FFFF5FC0FFFF7F58
:100FE00010000020400D03000000045000030450D6
:100FF0000000FEFF07C0F0FF7047000010B59EB074
:101000000446142117A8FFF718F95C216846FFF77A
:1010100014F920492068884239D14FF4804000906B
:10102000800314900120019002901020039007206B
:101030000490022005900690C0050790684600F0D5
:10104000BBFA08B1FFF7F0FB1348C16C41F4005143
:10105000C164C16C01F400511C91C16C41F00401E8
:10106000C164C06C17A900F004001C900420179004
:101070000B20189000201990084800F0DFF800229B
:101080000221122000F02AFA122000F019FA1EB0F4
:1010900010BD00000000045000100240000800488D
:1010A00010B50446006801F0EEF910B102210846BF
:1010B00010BD94F8500001280CD0012084F8500095
:1010C0002046FFF759FB01004FF0000004D084F8E0
:1010D0005000ECE7022010BD626D40F601639A43B8
:1010E00042F480726265626DD20404D5A26D22F072
:1010F0000602A26500E0A06523681C221A6084F83D
:1011000050002068426822F01C0242606069082892
:101110002068426802D042F0040201E042F0080276
:101120004260606B20B92068426842F01002426061
:101130002068C268920119D5626D22F4005242F40F
:10114000805262656269082A426807D022F0400234
:1011500042602068426842F0200206E022F020024D
:1011600042602068426842F0400242602068826823
:10117000024B1A40121D826099E70000C0FFFF7FFA
:1011800010B590F825100022022905D00421C16372
:1011900080F82420012010BD01680B6823F00E03A5
:1011A0000B6001680B6823F001030B6090F844109A
:1011B000046C01F01C03012101FA03F3636080F861
:1011C000251080F82420104610BD10B590F8251089
:1011D0000024022903D00421C16301241AE001681C
:1011E0000A6822F00E020A6001680A6822F0010211
:1011F0000A6090F84410036C01F01C02012101FA0E
:1012000002F25A6080F82510002180F82410816BCA
:1012100001B18847204610BD70B5044600F0FAF8C9
:101220000546601C02D004480078044400F0F2F83F
:10123000401BA042FAD370BD040000202DE9F04FFE
:10124000DFF8AC9100230325A9F1040B85B04FF022
:10125000010C0F2709F1040AABF1040EBFE000BF37
:101260000CFA03F6324075D00C7904F00304012C1B
:1012700001D0022C1BD1846800945C0005FA04F8AC
:101280000494009C24EA08040094D1F80C80049C87
:1012900008FA04F8009C48EA0408C0F8088044688A
:1012A000B4430E79C6F300169E40264346600C797F
:1012B000E443A4070AD0C4684FEA430805FA08F6D5
:1012C000B4438E6806FA08F62643C6600C7904F02B
:1012D0000304022C10D1DC0800EB84040294246A7D
:1012E0005E074FEAD66807FA08F6B4430E6906FAB5
:1012F00008F62643029C266204684FEA430805FA72
:1013000008F6B4430E7906F0030606FA08F62643FB
:1013100006604C6814F4403F60D0364C266E46F0B0
:1013200001062666246E23F0030604F001040094EF
:10133000314C34440294A4689E074FEA167807FAA9
:1013400008F6B443B0F1904F05D02C4EB04204D112
:10135000012612E042E000260FE0294EB04201D102
:1013600002260AE0274EB04201D1032605E0264EB0
:10137000B04201D1042600E0072606FA08F626430B
:10138000029CA660D9F800604C46D1F804809643D0
:101390005FEAC82800D516432660DAF800405646B2
:1013A000D1F8048094435FEA882800D51443346060
:1013B000DBF800405E46D1F8048094435FEA883849
:1013C00000D514433460DEF800407646D1F804803E
:1013D00094435FEAC83800D5144334605B1C0A6844
:1013E00032FA03F47FF43CAF05B000F00FB8000010
:1013F00008040140001002400000014000040048C1
:1014000000080048000C00480010004830BCBDE84F
:10141000C08F000001488068704700000400002071
:1014200002488168027811448160704704000020FE
:1014300010B50024032000F071F80F2000F008F828
:1014400008B1012401E000F025F8204610BD00009D
:1014500070B50E4E05460024307898B14FF47A717D
:10146000B1FBF0F00A490968B1FBF0F000F0CAFDE9
:1014700040B9102D06D200222946501E00F02EF849
:10148000756000E00124204670BD000004000020CB
:1014900010000020094808B5016E41F00101016605
:1014A000016E01F001010091816D41F08051816573
:1014B000806D00F08050009008BD000000100240D8
:1014C000002809DB00F01F02012191404009800043
:1014D00000F1E020C0F8001170470000F0B40E4B9E
:1014E0001B680C46C3F30223C3F10705042D00D982
:1014F0000425191D072901D2002300E0DB1E012667
:1015000006FA05F1491E214099409E40761E16407C
:101510003143F0BC01F090BB0CED00E0064900F057
:10152000070208684FF6FF03184040EA0220034A0A
:1015300010430860704700000CED00E00000FA0561
:101540001649B0F5007F0868C0F3412009D0022891
:1015500005D0086820F4C06040F480600860002076
:1015600070470128FBD0086820F4C06040F4007088
:1015700008600B483222006850430A4AB0FBF2F080
:10158000401C00E0401E4A69520501D50028F9D1EF
:1015900048694005E3D50320704700000070004013
:1015A0001000002040420F000248006800F4C060B4
:1015B00070470000007000402DE9F84F04460027F6
:1015C0000088A84D3E46000515D5606C60B1B0F5A9
:1015D000000F04D0B0F5400F2BD001270AE0E868D7
:1015E00040F48030E86024E00021201D00F0CCFFB2
:1015F00007001ED03E46206880033AD5A86D4FF004
:101600000008C00009D4A86D40F08050A865A86DFE
:101610004FF0010800F080500090DFF84CA2DAF89B
:10162000001041F48071CAF80010FFF7F3FE814604
:1016300010E0D5F88800616C20F440000843C5F83C
:101640008800D8E7FFF7E6FEA0EB0900022801D9E1
:10165000032705E0DAF80000C005F3D5002F7DD0A0
:101660004FEA0706B8F1000F03D0A86D20F08050B4
:10167000A8652078C00707D0D5F88800216A20F037
:1016800003000843C5F888002078800707D5D5F8FF
:101690008800616A20F00C000843C5F888002078B3
:1016A000400707D5D5F88800A16A20F0300008432C
:1016B000C5F888002078800607D5D5F88800E16A4B
:1016C00020F440600843C5F888002088800507D5CD
:1016D000D5F88800E16B20F440200843C5F8880065
:1016E0002088400507D5D5F88800216C20F44010EB
:1016F0000843C5F888002078400607D5D5F888004B
:10170000216B20F440500843C5F88800207800067B
:1017100007D5D5F88800616B20F440400843C5F830
:1017200088002088C00507D5D5F88800A16B20F473
:1017300040300843C5F8880020684FF00067000378
:101740004FF0806850D5D5F88800A16C20F040603B
:101750000843C5F88800A06CB84200E005E03BD122
:10176000E86840F48010E8603EE0D5F8900010F49E
:10177000407014D0A16D814211D0D5F89000D5F8F9
:10178000901020F4407041F48031C5F89010D5F8E5
:10179000901021F48031C5F89010C5F89000C00772
:1017A00011D0FFF737FE074641F2883907E000BF46
:1017B000FFF730FEC11B494501D9032652E7D5F892
:1017C00090008007F4D5D5F89000A16D20F440700A
:1017D0000843C5F8900045E7404505D10121201D8B
:1017E00000F0D2FE00B106462068400317D5D5F8B8
:1017F0008800E16C20F040600843C5F88800E06C88
:10180000B84204D1E86840F48010E86007E0404541
:1018100005D10121201D00F0B7FE00B10646208849
:10182000400411D5D5F88800216D20F040500843C0
:10183000C5F88800206DB0F1805F05D10221201D20
:1018400000F0A2FE00B106462088000406D555F837
:10185000880F616D20F0804008432860304600F01A
:1018600005B80000001002400070004018BCBDE840
:10187000E08F00002DE9F0470F4605006BD0494E80
:10188000306800F00700B84209D2306820F0070045
:1018900038433060306800F00700B8425BD12878E8
:1018A000414C80070AD5A868A16801F0F001884280
:1018B00004D9A16821F0F0010143A1602878C00794
:1018C0002CD06868032811D0022812D0216898B162
:1018D000490500293FDAA16821F003010143A16015
:1018E000FFF798FD804641F2883910E021688901B0
:1018F000EFE721688903ECE78907EAE7FFF78AFD4C
:10190000A0EB0801494502D90320BDE8F087A06893
:10191000696800F00C00B0EB810FEFD128788007E8
:101920000AD5A868A16801F0F001884204D2A16834
:1019300021F0F0010143A160306800F00700B842D7
:101940000BD9306820F0070038433060306800F071
:101950000700B84201D00120D7E72878400705D515
:10196000A068E96820F4E0600843A06028780007D8
:1019700006D5A068296920F4605040EAC100A06043
:1019800000F03EF8A168094AC1F30311515C01F06F
:101990001F01C8400649086006480068BDE8F047D6
:1019A000FFF756BD00200240001002403836000804
:1019B00010000020080000200548064900688968DA
:1019C000054AC1F30221515C01F01F01C840704774
:1019D0001000002000100240783600080548064933
:1019E00000688968054AC1F3C221515C01F01F01FA
:1019F000C8407047100000200010024078360008F0
:101A000070B52549002318468A68CC6812F00C028C
:101A100004F00306214C4FEA640509D00C2A05D0D6
:101A2000042A32D0082A00D1284670BD012E10D1D8
:101A30000B681B0704D4D1F89430C3F3032302E0EE
:101A40000B68C3F30313164E56F82330DAB10C2A91
:101A5000EBD1C86800F00300022818D0032818D082
:101A60001846CA68CB68C2F30212C3F30623434385
:101A7000521CB3FBF2F2C868C0F34160401C400046
:101A8000B2FBF0F070BD184670BD204670BD204618
:101A9000E7E72846E5E70000001002400024F400D4
:101AA000483600082DE9F84304006FD0FA4DA868C5
:101AB00000F00C06E86800F003072078C00664D543
:101AC00076B10C2E01D1012F0AD0A0690028286818
:101AD0007AD040F001002860FFF79CFC80465DE072
:101AE0002868800702D5A0690028DED0216A28680E
:101AF000000703D5286800F0F00004E0D5F8940052
:101B0000F02202EA1010814216D9084600F0D2FDF8
:101B100000283BD1286840F0080028602868216A26
:101B200020F0F000084328606868E16920F47F40F5
:101B300040EA0120686016E0286840F0080028604C
:101B40002868216A20F0F000084328606868E1698D
:101B500020F47F4040EA0120686026B9206A00F046
:101B6000A9FD0028D5D1FFF74BFFA968CB4AC1F3E7
:101B70000311515C01F01F01C840C9490860C94800
:101B80000068FFF765FC00287ED12EE0CAE000BFA8
:101B9000FFF740FCA0EB0800022876D828688007F1
:101BA000F6D5286840F0080028602868216A20F0EF
:101BB000F000084328606868E16920F47F4040EA4B
:101BC0000120686011E0FFE720F001002860FFF7C6
:101BD00021FC804606E000BFFFF71CFCA0EB0800DC
:101BE0000228DAD828688007F6D42078C00740D0C9
:101BF000082E18D00C2E01D1032F14D06068B0F538
:101C0000803F17D0B0F5A02F286817D020F480307F
:101C10002860286820F4802028606068E0B1FFF721
:101C2000F9FB804614E02868800322D5606800280C
:101C300078D01EE0286840F48030EDE740F4802042
:101C40002860F7E7FFF7E6FBA0EB08006428A4D8BC
:101C500028688003F6D50CE0FFF7DCFB804605E042
:101C6000FFF7D8FBA0EB0800642896D8286880030B
:101C7000F6D4207880073BD5042E11D00C2E01D14C
:101C8000022F0DD0E06801E0AAE1FFE000282868FB
:101C90001ED040F480702860FFF7BCFB07460CE0C4
:101CA000286840050CD5E0680028C1D008E000BFD6
:101CB000FFF7B0FBC01B022893D828684005F7D572
:101CC0006868217C20F0F85040EA016068600FE00D
:101CD00020F480702860FFF79DFB074605E000BFF9
:101CE000FFF798FBC01B0228B1D828684005F7D43D
:101CF0002078000729D560690028D5F8940012D013
:101D000040F00100C5F89400FFF784FB074604E0AB
:101D1000FFF780FBC01B022899D8D5F894008007F4
:101D2000F6D512E02BE120F00100C5F89400FFF792
:101D300071FB074605E000BFFFF76CFBC01B0228E4
:101D400085D8D5F894008007F6D42078400766D56A
:101D5000A86D0027C00008D4A86D40F08050A86589
:101D6000A86D012700F0805000904F480168C90518
:101D700012D40168814641F480710160FFF74AFB8B
:101D8000804605E0FFF746FBA0EB080002287DD85F
:101D9000D9F80000C005F5D5A068012816D005289F
:101DA000D5F8900017D020F00100C5F89000D5F8C4
:101DB000900020F0040000BFC5F89000A06841F238
:101DC0008839C0B1FFF726FB80460FE0D5F89000B8
:101DD00040F00100F0E740F00400C5F89000F5E79E
:101DE000FFF718FBA0EB080149454FD8D5F8900044
:101DF0008007F5D50EE0FFF70DFB804606E000BF3B
:101E0000FFF708FBA0EB080149453FD8D5F8900043
:101E10008007F5D41FB1A86D20F08050A865207808
:101E2000800628D5606A0028D5F8980012D040F0C6
:101E30000100C5F89800FFF7EDFA074605E000BF7E
:101E4000FFF7E8FAC01B022820D8D5F898008007D1
:101E5000F6D510E020F00100C5F89800FFF7DAFA97
:101E6000074604E0FFF7D6FAC01B02280ED8D5F8C3
:101E700098008007F6D4A06AF0B3022816D00C2E82
:101E80007DD0286820F08070286000E0A7E0FFF790
:101E9000C1FA0446A6E000000010024038360008EF
:101EA000100000200800002000700040E868E26A8E
:101EB00000F00301914228D1216B00F0700209016A
:101EC0001039914221D1626B00F4FE41B1EB022F37
:101ED0001BD194F8382000F07841B1EBC26F14D1D7
:101EE000A18F00F4C00249084905A1F500119142F3
:101EF0000BD194F8401000E06AE04908490600F070
:101F0000C060A1F1007181424BD00C2E73D02868C3
:101F1000400170D4286820F080702860FFF77AFABA
:101F2000064604E0FFF776FA801B022857D8286897
:101F30008001F7D4F4E90B016FF00F0202EB0111FD
:101F40000843218A5204490802EB4151A26841EA40
:101F500002210843217D4FF07E42490802EB416196
:101F60000843217B40EAC160E968244A11400843E4
:101F7000E860286840F080702860E86800E03AE097
:101F800040F08070E860FFF745FA044605E000BFC6
:101F9000FFF740FA001B022821D828688001F7D5F6
:101FA00027E02868800124D4286840F080702860E9
:101FB000E86840F08070E860FFF72CFA044604E01F
:101FC000FFF728FA001B022809D828688001F7D5F6
:101FD0000FE000BFFFF71EFA001B022802D9032002
:101FE000BDE8F88328688001F4D4E8680449084013
:101FF000E8600020F4E70120F2E700008C809D01FA
:10200000FCFFEEFE10B5401EB0F1807F01D3012031
:1020100010BD4FF0E02460610F21601700F00CFE4E
:102020000020A06107202061002010BD704770478C
:10203000704700002DE9F04102680446D06911683C
:10204000936840F60F0528424FF0000505D186063B
:102050007ED58E067CD5616E1BE1994F03F001069B
:102060000F40374374D0C70709D0CF0507D50127E4
:102070001762D4F8802042F00102C4F88020820761
:102080000AD5DA0708D0276802223A62D4F88020FD
:1020900042F00402C4F8802042070AD5DA0708D0CB
:1020A000236804221A62D4F8802042F00202C4F8A5
:1020B000802002070CD501F02002324308D02368AB
:1020C00008221A62D4F8802042F00802C4F8802066
:1020D00002050BD54A0109D523684FF400621A6244
:1020E000D4F8802042F02002C4F88020D4F8802068
:1020F000002A35D0800605D5880603D5616E09B162
:1021000020468847D4F8800021688968490602D4AF
:1021100010F0280F26D0204600F0ECFB20688068E5
:1021200040061AD52068083050E8001F21F0400111
:1021300040E80012002AF5D1206F70B16149816337
:10214000206FFFF742F800280AD0206F816B01E072
:102150000EE02046BDE8F04108472046FFF768FF43
:10216000BDE8F0812046FFF763FFC4F88050F7E731
:10217000276E2026012F7BD1C70679D5CF0677D5CC
:102180001020106220688068400641D5216F0868E1
:1021900040680004000CE3D0B4F858208242DFD934
:1021A000A4F85A000868006880062AD4206850E81D
:1021B000001F21F4807140E80012002AF6D1206847
:1021C000083050E8001F21F0010140E80012002A09
:1021D000F5D12068083050E8001F21F0400140E8A8
:1021E0000012002AF5D1E6672566216851E8000F44
:1021F00020F0100041E80002002AF6D1206FFEF71F
:10220000BFFFB4F85800B4F85A10401A81B22AE05F
:10221000B4F85800B4F85A10401A81B2B4F85A0011
:1022200000289DD000299BD0226852E8000F20F49E
:10223000907042E80003002BF6D12068083050E887
:10224000002F22F0010240E80023002BF5D1E667C1
:1022500025666566226852E8000F20F0100042E80B
:102260000003002BF6D12046FFF7E0FE78E7FFE7FA
:10227000C70209D55B0207D54FF4801010622046D3
:10228000BDE8F041FFF7D3BE020606D50A0604D525
:10229000A16E00297FF45DAF62E74006E6D54806EF
:1022A000E4D52046026852E8001F21F0400142E8D0
:1022B0000013002BF6D18667856600F0D8F84FE74B
:1022C00020010004E128000810B5040002D0A06F2E
:1022D00010B107E0012010BD002084F874002046F2
:1022E00000F026F82420A0672068016821F0010191
:1022F0000160204600F024FB0128ECD0606A10B198
:10230000204600F05BFA2068416821F4904141606A
:102310002068816821F02A0181602068016841F00D
:10232000010101602046BDE8104000F0ABBA00009A
:1023300030B59DB00446142117A8FDF77EFF5C213F
:102340006846FDF77AFF1A49206888422ED1022498
:102350000025684609950094FFF72EF908B1FEF7AD
:1023600063FA1448816D41F400318165816D01F497
:1023700000311C91C16C41F00101C164C06C17A90E
:1023800000F001001C900C2081E8310003201A901D
:1023900007201B904FF09040FEF750FF002211469F
:1023A0002620FFF79BF82620FFF78AF81DB030BDE6
:1023B00000440040001002402DE9F8430446806FBD
:1023C0001F4616460D4620284FD1CDB1C6B194F810
:1023D0007400012849D0012084F874004FF00008EF
:1023E000C4F880802120A067FFF714F8A4F850609B
:1023F0008146A4F85260A068B0F5805F03D004E085
:102400000120BDE8F883206928B12E465FF0000561
:1024100084F8748010E00026FAE78021204600F05E
:102420008FFBB8B9C6B116F8010B21680885B4F85E
:102430005200401EA4F85200B4F852004B464FF030
:10244000000200970028E8D14FF04001204600F03C
:1024500077FB30B10320D4E735F8020BC0F3080056
:10246000E3E72020A0670020CBE70220C9E7704700
:10247000FEE700EB8100006E00F0F84070478068D6
:10248000C0F3C00070478068C0F380007047C06828
:1024900010F4406F01D000207047012070470423E2
:1024A00003EAD15310B518444369C1F3045107241A
:1024B0008C40A3438A401343436110BD00EB81006D
:1024C000016E21F0004111430166704730B587B0BD
:1024D00018216846FDF7B1FE194818490024C0E9E3
:1024E000001484600425C460C0E904450476012119
:1024F0004176C16180F820408462C46280F8304037
:10250000446380F83840FEF79FFC08B172B6FEE7DE
:102510000C48009006200190072002907F2005942F
:10252000CDE9030569460648FEF786F908B172B69B
:10253000FEE70348FEF7B4FD07B030BD00000450CD
:10254000180000200800900C0C4810B50A490160E2
:102550004FF461314160002181600C22C160C0E90B
:1025600004128161C16101624162FFF7ADFE002882
:1025700001D072B6FEE710BD004400407C00002090
:10258000FEE7FEE7704700002DE9F041444C0546A8
:102590008846E0680026810728680DD0E16801F0D0
:1025A0000301814216D1A8B1E0686968C0F3021046
:1025B000401C88420ED120E0012804D0022805D01A
:1025C000032807D108E02168890701E0216849054F
:1025D000002907DB01265FE02168890302D4216816
:1025E0004903F5E7E1686A686FF00F0321F07301B2
:1025F00003EB021211430143E160206820F0806088
:102600002060FEF707FF074605E000BFFEF702FF68
:10261000C01B022837D820680001F7D4B8F1000F9A
:1026200018D0B8F1010F1DD0287D4FF07E41400831
:1026300001EB4060A96840EA01202169194A114074
:1026400008432061206840F080602060FEF7E2FED1
:1026500007461AE0A868297B000240EAC1602169A8
:10266000114AECE7288A1149400801EB4050A9685B
:1026700040EA012021690E4AE1E700BFFEF7CAFEE9
:10268000C01B022801D9032606E020680001F5D509
:102690002069A969084320613046BDE8F081000047
:1026A00000100240FF80FFF9FF80FF070000E0FFFD
:1026B000FF809FFFF8B51C4D06460024A86DC000A2
:1026C00002D5FEF771FF0DE0A86D40F08050A865BF
:1026D000A86D00F080500090FEF766FFA96D21F014
:1026E0008051A965B0F5007F04D0802E07D94FF046
:1026F00003040AE0802E08D9A02E01D804E001D1FD
:10270000022402E0702E00D101240848016821F063
:10271000070121430160006800F00700A04201D0DA
:102720000120F8BD0020F8BD00100240002002404A
:102730007047FEF775BE10B596B044216846FDF7A8
:102740007CFD142111A8FDF778FD4FF40070FEF711
:10275000F7FE08B172B6FEE71020009001200024B9
:1027600060210690CDE907410221CDE90A100C90C5
:1027700028200D900720CDE90E0168461091FFF743
:1027800091F908B172B6FEE70F2011900320CDE950
:1027900012041494042111A81594FFF76BF8002873
:1027A00001D072B6FEE716B010BD00000248016805
:1027B00041F470010160704788ED00E090F824104A
:1027C000C90706D001684A68836A22F400321A43B6
:1027D0004A6090F82410890706D501684A68C36AE0
:1027E00022F480321A434A6090F82410490706D533
:1027F00001684A68036B22F480221A434A6090F809
:102800002410090706D501684A68436B22F4004288
:102810001A434A6090F82410C90606D501688A68F0
:10282000836B22F480521A438A6090F82410890640
:1028300006D501688A68C36B22F400521A438A6085
:1028400090F82410490611D501684A68036C22F4F7
:1028500080121A434A60016CB1F5801F06D10168ED
:102860004A68436C22F4C0021A434A6090F824106C
:10287000090606D501684A68806C22F400220243EA
:102880004A607047F8B500260446C0F88060FEF73D
:10289000C1FD0546206800686FF07E47000708D537
:1028A0002B4600224FF400112046009700F048F913
:1028B00060B92068006840070AD52B4600224FF413
:1028C00080012046009700F03BF908B10320F8BDD5
:1028D0002020A067E067266684F874600020F8BDB9
:1028E00010B5806A0021A0F85A10A0F85210FFF726
:1028F0009FFB10BD016851E8002F22F4907241E85F
:102900000023002BF6D10168083151E8002F22F096
:10291000010241E80023002BF5D1016E012908D105
:10292000026852E8001F21F0100142E80013002B5A
:10293000F6D12021C1670021016641667047000081
:102940002DE9F0410446016880682269E36910437B
:10295000626900251A431043714F0A68714B1A408F
:1029600002430A6020684168E26821F44051114343
:1029700041602168A069B94201D0226A10438A6887
:1029800022F4306202438A606749236867488B42B9
:102990000DD1D0F8880010F0030006D0012847D0F0
:1029A000022843D0032830D144E001212EE06049C1
:1029B0008B420BD1D0F8880010F00C0034D00428E2
:1029C00036D0082832D00C281FD133E059498B4229
:1029D0000BD1D0F8880010F0300025D0102827D077
:1029E000202823D0302810D124E0BB420DD1D0F8CC
:1029F000880010F4406017D0B0F5806F18D0B0F5A3
:102A0000006F13D0B0F5406F14D010214A4A002651
:102A10004FF40040BB422FD171B102290FD00429DD
:102A20000FD0082973D10FE00021EFE70221EDE775
:102A30000421EBE70821E9E7FEF7BEFF03E01046BB
:102A400002E0FEF7DDFFE8B3626802EB420181427B
:102A50005DD8B0EB023F5AD8010E03025008181897
:102A600071410023FDF7AEFB344AA0F5407191425D
:102A70004DD82168C8604BE0E3694FF6EF77834299
:102A800028D1092943D2DFE801F005080B420D42A5
:102A900042421000FEF790FF06E0FEF79FFF03E0C2
:102AA000104602E0FEF7ACFF60B14100606801EB48
:102AB0005001B1FBF0F0A0F11001B94227D84FF658
:102AC000F07100E024E00140C0F3420001432068BF
:102AD000C1601DE009291AD2DFE801F005080B19D1
:102AE0000D1919191000FEF767FF06E0FEF776FFD3
:102AF00003E0104602E0FEF783FF48B1616800EB97
:102B00005100B0FBF1F0A0F11001B94205D9012547
:102B100066662846A666BDE8F08180B2A9E7000097
:102B200000800040F369FFEF0038014000100240D0
:102B300000440040004800400024F400FFFC0F0067
:102B40002DE9F0479A4617460E4604464FF0000915
:102B50004FF02008089D4AE0681C48D0FEF75AFC58
:102B6000A0EB0A00A8422AD84DB3206801684907A3
:102B70003DD5C069C043000539D421684FF40060D9
:102B80000862206850E8001F21F4D07140E800126C
:102B9000002AF6D12068083050E8001F21F001011A
:102BA00040E80012002AF5D1C4F87880C4F87C808F
:102BB000C4F8808084F874900320BDE8F087216811
:102BC00051E8000F20F4D07041E80002002AF6D14D
:102BD0002068083050E8001F21F0010140E8001291
:102BE000002AF5D1C4F87880C4F87C80E2E7206838
:102BF000C06936EA000004D00020B842ACD0002002
:102C0000DBE70120F9E700000148FFF713BA0000F5
:102C10007C000020FEE700000FB4054B10B503A9AF
:102C2000044A029800F0EEF810BC5DF814FB0000B6
:102C300039350008140000200907090E002804DBBC
:102C400000F1E02080F80014704700F00F0000F160
:102C5000E02080F8141D704702E008C8121F08C168
:102C6000002AFAD170477047002001E001C1121F0D
:102C7000002AFBD1704700002DE9FF5F82B00021E0
:102C8000DDE90430020DDDF840B0034318D044F60E
:102C90001050A2F2FF3242431514119801281FD0A0
:102CA000A5EB0B00401C5FEA000A4FF000064E4FF8
:102CB000DFF83891B046504615D5CAF1000413E04C
:102CC000119801244AA3012801D16FEA0B0102984F
:102CD000119AC0E90031C0E9024206B000F08EB896
:102CE000CBF10000DFE704460021404A491842EBDF
:102CF0000450CDE9001012E0E00707D032463B4611
:102D000040464946FDF79BFB8046894632463B4696
:102D100010461946FDF793FB06460F466410002C3B
:102D2000EAD1DDE90401DDE90023BAF1000F06DA9A
:102D3000FDF785FB42464B46FDF781FB05E0FDF7BD
:102D4000F3FB42464B46FDF7EFFB04460E460022DE
:102D5000284BFDF771FC03D84FF0FF30014607E028
:102D60000022254B20463146FDF7BAFAFDF74BFC11
:102D7000102409E0002C0ADB0A220023FDF722FAC6
:102D8000039B30321A55641E50EA0102F2D1641CD2
:102D9000039AC4F111031444119A012A03D00122A9
:102DA00008430DD10AE0084304D000204FF0110B76
:102DB000119072E7A3EB0B056D1E0DE05B4504DD82
:102DC0004FF0000205F1010504E003DA4FF00002C4
:102DD000A5F10105002AECD002981199C0E9023151
:102DE000C0E9004579E70000000014400000F03F12
:102DF000300000000000F0430000E03F30BCBDE8C0
:102E0000C09F00002DE9FF4F95B09B4689460646BE
:102E100000250FE2252877D100242746F84A012112
:102E2000059400E0044316F8013F203B01FA03F04B
:102E30001042F7D130782A2811D06FF02F03307864
:102E4000A0F13002092A16D8059A44F0020402EBD8
:102E5000820203EB42021044761C0590EFE759F81A
:102E6000042B0592002A03DA504244F400540590E2
:102E700044F00204761C30782E2816D116F8010F83
:102E800044F004042A280DD06FF02F023078A0F10E
:102E90003003092B09D807EB870302EB4303C7185C
:102EA000761CF3E759F8047B761C30786C280FD039
:102EB00006DC4C2817D068280DD06A2814D104E00D
:102EC000742810D07A280FD10DE044F400140AE0E1
:102ED00044F4801401E044F440147278824202D138
:102EE00004F58014761C761C307866280BD013DC31
:102EF000582877D009DC002875D04528F6D0462818
:102F0000F4D047281AD19DE118E0632835D0642811
:102F100079D0652812D195E1702873D008DC672834
:102F2000F1D069286FD06E280DD06F2806D1B5E09A
:102F300073282CD0752875D0782874D05A461799E4
:102F400090476D1C75E1C4F30250022809D0032894
:102F50000DD0D9F8001004280DD00D6009F1040936
:102F600067E1D9F80010EA17C1E90052F6E7D9F88D
:102F700000100D80F2E70D70F0E719F8041B8DF8D2
:102F8000001000208DF80100EA46012003E059F806
:102F900004AB4FF0FF3061074FF0000102D40DE0A9
:102FA00008F101018846B9420FDA8045F8DB1AF8CA
:102FB00008100029F4D108E008F101018846814297
:102FC000FADB1AF808100029F6D105985B46A0EB49
:102FD000080721463846179A00F097FA284400EB74
:102FE000080507E04DE029E10DE01AF8010B5A460B
:102FF00017999047B8F10108F7D25B462146384649
:10300000179A13E142E00A220092C4F302524FF0F1
:10301000000A022A08D059F804CB032A4FEAEC71BF
:103020000AD00DE029E02AE009F1070121F00702AA
:10303000F2E802C1914609E00FFA8CFC4FEAEC710C
:10304000042A03D14FFA8CFC4FEAEC71002907DA0D
:103050000A460021DCF1000C61EB02012D2202E0A6
:10306000220504D52B228DF80420012203E0E2077B
:1030700001D02022F7E7904659E00A2102E0102211
:103080000DE010214FF0000A00910BE010224FF0EC
:10309000000A44F004040827009203E008224FF0DD
:1030A000000A0092C4F30252022A05D059F804CB58
:1030B0000021032A08D009E009F1070121F00702E5
:1030C000F2E802C1914605E01FFA8CFC042A01D106
:1030D0000CF0FF0C4FF00008220728D5702806D00E
:1030E000009B83F0100353EA0A0305D00EE0402250
:1030F0008DF80420012208E05CEA010206D03022AB
:103100008DF804208DF8050002229046009B83F084
:10311000080353EA0A030AD15CEA010201D16207FB
:1031200005D530228DF804204FF001087F1E582865
:1031300004D034A003900EA802900DE036A0F9E769
:1031400053466046009AFDF73DF884460398825C3A
:103150000298401E029002705CEA0100F0D10298D1
:1031600006A9081A00F1200A600702D524F4803469
:1031700000E00127574502DDA7EB0A0000E0002030
:1031800000EB0A01009005984144401A0590E003C5
:1031900006D45B462146179A059800F0B6F9054417
:1031A000002706E001A85A46C05D179990476D1C9C
:1031B0007F1C4745F6DBE0030CD55B462146179A9A
:1031C000059800F0A2F9054404E030205A4617990A
:1031D00090476D1C0099481E00900029F5DC08E01E
:1031E000029802995A460078491C02911799904713
:1031F0006D1CBAF10001AAF1010AF1DC65E10000E1
:1032000009280100303132333435363738396162BC
:103210006364656600000000303132333435363780
:1032200038394142434445460000000000F05BF954
:103230000544761C307800287FF4ECAD19B02846A0
:1032400000F04EB9620700D4062709F1070222F008
:10325000070CFCE80223E14603F000485FEA080C93
:1032600002D00FF2702C0DE05FEA045C02D50FF281
:10327000682C07E05FEAC47C02D00FF2602C01E00A
:10328000AFF2700C4FF0FF3823F00043CDF850C080
:1032900065280CD006DC452809D046281DD04728D3
:1032A0003DD13DE0662818D067287ED138E0002166
:1032B000112F01DB112000E0781CCDE9000106A9E7
:1032C0000EA8FFF7D9FCDDE90F010E9A039100214A
:1032D000009207F1010A04914DE04FF00040009781
:1032E000CDE9011006A90EA8FFF7C6FCDDE90F0223
:1032F00003920E9B11990022DDF80CA0009304921A
:1033000011B9791C00EB010AB7EB0A0004D4C0F133
:10331000FF3007F1010A0490AAEB0700019044E096
:10332000012F00DA01270021112F01DD112000E01B
:103330003846CDE9000106A90EA8FFF79DFCDDE99E
:103340000F010E9A0391002104910092BA462107C1
:103350000CD40399514500DA8A46BAF1010F05DD14
:10336000009AAAF10101515C302908D0B84202DA72
:1033700010F1040F06DA0121CDE9011015E0AAF1E0
:103380000101E9E7002805DC049901440491AAEB56
:10339000000102E0411C514500DD8A460499401AB3
:1033A000401C01904FF000400290200704D4019887
:1033B000504501DBCDF8048000208DF84F000298C5
:1033C0000DF14F07B0F1004F25D02B200E90029841
:1033D0004FF0020800280CDA404202902D200E9097
:1033E00007E00A210298FCF746FF3031029007F807
:1033F000011DB8F10001A8F10108F2DC02980028D3
:10340000EFD1791E0E980870307800F0200040F05F
:10341000450007F8020D12A8C01B00F10708149818
:10342000007800B1012000EB0A01019801EBE07186
:1034300005984144401A401E0590E00306D45B46BF
:103440002146179A059800F060F805441498007812
:1034500018B15A46179990476D1CE00324D55B4676
:103460002146179A059800F050F805441CE004988E
:10347000002807DBDDE90301884203DD0098405C9A
:10348000179901E0179930205A469047049805F1A2
:103490000105401C04900198401E019004D12E208B
:1034A0005A46179990476D1CBAF10001AAF1010A1A
:1034B000DDDC05E017F8010B5A46179990476D1CA3
:1034C000B8F10001A8F10108F4DC5B462146179A27
:1034D0000598ABE62D0000002B0000002000000046
:1034E00030BCBDE8C08F2DE9F041044600251E46E2
:1034F0001746880404D405E039462020B0476D1CE7
:10350000641EF9D52846BDE8F0812DE9F041044656
:1035100000251E469046C80301D5302700E020272D
:10352000880404D505E041463846B0476D1C641E4A
:10353000F9D52846BDE8F08113B54FF47A7301221E
:1035400069460248FEF738FF00981CBD7C00002049
:103550002DED048B82B0FDF76BFFFFF7ECF82048F0
:10356000C16C41F00401C164C16C01F0040100911F
:10357000C16C41F08001C164C16C01F08001009117
:10358000C16C41F00101C164C06C00F00100009009
:10359000FEF79CFFFEF7D8FF124CDFED138A9FED7C
:1035A000139A41F288352068216800EE100AB8EEBF
:1035B000400A20EE280A20EE098A0DA0FFF72CFB16
:1035C00018EE100AFCF744FE41EC100B11A053EC6E
:1035D000102BFFF721FB2846FDF71EFEE3E7000056
:1035E00000100240000000200000803933335340B7
:1035F0000D0A205468652063757272656E742041EF
:10360000442076616C7565203D2030782530345833
:10361000200D0A000D0A20546865206375727265DA
:103620006E742041442076616C7565203D202566CE
:103630002056200D0A0000000000000000000000DD
:103640000102030406070809A0860100400D0300DB
:10365000801A060000350C0040420F0080841E00D6
:1036600000093D0000127A000024F40000366E01CB
:103670000048E801006CDC020000000001020304C5
:10368000A03600080000002018000000582C000898
:10369000B836000818000020E8040000682C000874
:1036A0000000000001000000100000000000000009
:0836B00000093D0000000000CC
:040000050800018D61
:00000001FF
