:020000040800F2
:10000000B80C00202D020008972D00081B280008BE
:10001000952D000831040008C137000800000000D9
:10002000000000000000000000000000DD320008B9
:100030004104000800000000EB300008DF32000837
:10004000470200084702000847020008470200086C
:10005000470200084702000847020008470200085C
:10006000470200084702000847020008350400085C
:10007000470200084702000847020008470200083C
:10008000470200084702000825040008470200084C
:10009000470200084702000847020008470200081C
:1000A000470200084702000847020008470200080C
:1000B000470200080000000000000000470200089E
:1000C00047020008470200084702000847020008EC
:1000D0004702000847020008B53700084702000839
:1000E000470200084702000800000000000000006E
:1000F0000000000000000000000000000000000000
:10010000000000004702000800000000470200084D
:10011000000000000000000047020008470200083D
:10012000470200084702000847020008470200088B
:10013000470200080000000000000000000000006E
:1001400047020008470200084702000800000000BC
:10015000470200084702000847020008470200085B
:10016000470200084702000847020008000000009C
:1001700047020008470200080000000000000000DD
:1001800047020008470200084702000800F002F892
:1001900000F03CF80AA090E8000C82448344AAF1E5
:1001A0000107DA4501D100F031F8AFF2090EBAE8E3
:1001B0000F0013F0010F18BFFB1A43F0010318479B
:1001C000B03F0000D03F0000103A24BF78C878C18B
:1001D000FAD8520724BF30C830C144BF04680C604D
:1001E000704700000023002400250026103A28BF95
:1001F00078C1FBD8520728BF30C148BF0B60704799
:100200001FB503F07FFB1FBD10B510BD00F0CFF888
:100210001146FFF7F5FF03F03FFB00F0EDF803B4E4
:10022000FFF7F2FF03BC00F0F5F800000948804733
:1002300009480047FEE7FEE7FEE7FEE7FEE7FEE7C8
:10024000FEE7FEE7FEE7FEE704480549054A064BE0
:1002500070470000593300088D010008B8060020DF
:10026000B80C0020B8080020B808002053EA020C9F
:1002700000F069802DE9F04B4FF00006002B1FBF06
:10028000B3FA83F503FA05F424FA05F65E4012BFCB
:100290001643B2FA82F502FA05F4C5F120051EBF35
:1002A00022FA05FC44EA0C04203556EA044C4FEAD5
:1002B000144418BF641C4FF000084FF0000990422E
:1002C00071EB030C39D3002919BFB1FA81F701FA98
:1002D00007F6B0FA80F700FA07F6C7F120071EBF4D
:1002E00020FA07FC46EA0C062037B6FBF4FCA7EB25
:1002F0000507103F07F01F0BCBF120060CFA0BFB94
:100300002CFA06F644BFB3460026202FA4BF5E4653
:100310004FF0000B5BEA060C08BF4FF0010B19EB26
:100320000B09ABFB027C48EB0608C01B06FB02CCAA
:100330000BFB03CC71EB0C01C1E70B4602464146B7
:100340004846BDE8F08B13B54FF000004FF00001B8
:10035000AFF30080BDE81C4070474FF0000200B5CD
:10036000134694469646203922BFA0E80C50A0E8D8
:100370000C50B1F12001BFF4F7AF090728BFA0E886
:100380000C5048BF0CC05DF804EB890028BF40F852
:10039000042B08BF704748BF20F8022B11F0804F94
:1003A00018BF00F8012B70477047704770477546BB
:1003B00000F02CF8AE4605006946534620F00700D1
:1003C000854618B020B5FFF73FFFBDE820404FF04D
:1003D00000064FF000074FF000084FF0000B21F02F
:1003E0000701AC46ACE8C009ACE8C009ACE8C009FC
:1003F000ACE8C0098D46704710B50446AFF30080E5
:100400002046BDE81040FFF70ABF000000487047D3
:100410005806002001491820ABBEFEE72600020066
:1004200070470000014800F00EBA000010000020E4
:10043000FEE70000014800F06DBD000074000020E0
:10044000704772B6FEE77047704770477047704755
:100450002DE9F84F00270446009790F85000DFF888
:10046000B0930D46B846012811D0012684F850609B
:10047000206802F01EFA60B1606D40F020006065F7
:100480005FF0010784F85080384600F0D7B90220A9
:10049000FBE769680C20052912D8022907D0032937
:1004A00007D0042907D0052907D0062107E0686096
:1004B00006E0122103E0182101E04FF48071696029
:1004C000D5E90021236800EA91101844036B01F07C
:1004D0001F014FF01F0C0CFA01FCC2F3846223EAE7
:1004E0000C038A4013430363206802F0E2F982465A
:1004F000206802F0DAF95AEA00001DD1AA682968DA
:10050000206802F0E2F920686969C268C2F3C1029A
:10051000520091402A69042A0FD000EB82002B6818
:10052000026EDFF8F0C203F0F84302EA0C020B435C
:100530001A4342F00041016672E0002102F0AFF977
:10054000400320684FF0000172D002F0A8F990FA41
:10055000A0F0B0FA80F1286842036ED090FAA0F0C3
:10056000B0FA80F0814204D100221146206802F0E6
:10057000BBF90121206802F092F9400320684FF096
:1005800001015DD002F08BF990FAA0F0B0FA80F191
:100590002868420359D090FAA0F0B0FA80F0814266
:1005A00004D100220121206802F09EF90221206876
:1005B00002F075F9400320684FF0020148D002F0C4
:1005C0006EF990FAA0F0B0FA80F12868420344D0A6
:1005D00090FAA0F0B0FA80F0814204D1002202210A
:1005E000206802F081F90321206802F058F94003E5
:1005F00020684FF0030133D002F051F990FAA0F0D7
:10060000B0FA80F1286842032FD090FAA0F0B0FA37
:1006100080F0814204D100220321206802F064F9B5
:100620002068816811F0010F22D0ACE000E004E006
:1006300002F035F9C0F384618DE7C0F3846091E77F
:1006400002F02DF9C0F38461A2E7C0F38460A6E74D
:1006500002F025F9C0F38461B7E7C0F38460BBE71B
:1006600002F01DF9C0F38461CCE7C0F38460D0E7E9
:100670002A7B296850F8B03FC1F3120C23EA0C031F
:1006800002F0180C644A22FA0CF20A401343036089
:10069000E968494577D1286841031CD090FAA0F158
:1006A000B1FA81F1491C01F01F0109294FEA4031DB
:1006B00032D8002912D000BF90FAA0F1B1FA81F12E
:1006C00001F1010101F01F0106FA01F609D100BF95
:1006D000C0F3846109E0C0F38461E3E7C0F384619F
:1006E000EEE790FAA0F1B1FA81F101F1010101F018
:1006F0001F0146EA816102D1C0F3846003E090FAF1
:10070000A0F0B0FA80F000F1010000F01F0000EB53
:10071000400041EA005132E000290ED090FAA0F1E9
:10072000B1FA81F101F1010101F01F0106FA01F6B0
:1007300006D100BFC0F3846106E0C0F38461F1E735
:1007400090FAA0F1B1FA81F101F1010101F01F016C
:1007500046EA816102D1C0F3846003E090FAA0F020
:10076000B0FA80F000F1010000F01F002B4A00EB0E
:10077000400002EB005041EA000141F00071AA681C
:10078000206802F0A2F826482A6802423FF47AAEB6
:1007900024488168244D254B01F0E071AA421BD109
:1007A0000D0219D422689A427FF46CAE826841F43B
:1007B000000122F0E0720A4382601D481D49006872
:1007C000B0FBF1F0401C00EB4000800000E0401E58
:1007D00000900028FBD155E6174DAA4207D1CD0164
:1007E00005D422689A42F6D141F080710AE06FF098
:1007F0000045EA42EFD14A02EDD422689A42EAD19A
:1008000041F48001826822F0E0720A43826039E696
:1008100000007F4000F0FF03FFFF0700000020FE04
:100820000000088000030450000052C7000004507C
:100830000C000020400D0300000084CB18BCBDE874
:10084000E08F704770472DE9F04104460068066864
:100850004568B0070ED5A8070CD5606DC00603D457
:10086000606D40F4006060652046FFF7ECFD216894
:1008700002200860700701D5680703D4300725D52A
:10088000280723D5606DC00603D4606D40F4007066
:100890006065206802F011F890B12068C168890491
:1008A0000ED4016809070BD502F003F800287DD0AB
:1008B000606D40F010006065A06D40F00100A06523
:1008C0002046FFF7BEFF21680C200860B00601D566
:1008D000A80603D4700631D568062FD5606DC00612
:1008E00003D4606D40F4005060652068C16C11F065
:1008F000C00F7DD0002701F0E0FF21680246C868E4
:10090000B7B1830102D59AB1820411D40A685206A4
:100910000ED580020CD4084601F0C7FF00287FD016
:10092000606D40F010006065A06D40F00100A065B2
:100930002046FFF789FD21686020086030060BD54E
:10094000280609D5606D40F480306065204600F0CF
:1009500053F9216880200860F0050CD5E8050AD518
:10096000606D40F4003060652046FFF76FFD216840
:100970004FF480700860B0050CD5A8050AD5606DED
:1009800040F4802060652046FFF761FD21684FF448
:1009900000700860F00617D5E80615D5606B18B131
:1009A0002068C068C0070CD0606D00E024E040F40F
:1009B00080606065A06D40F00200A0652046FFF7F2
:1009C00041FF21681020086070053BD5680539D5C6
:1009D000606D40F480406065A06D40F00800A06547
:1009E00021684FF4806008602046BDE8F04101E0D6
:1009F00014E015E0FFF729BD2068416821F00C01E3
:100A00004160606D20F480706065606DC0043FF5EA
:100A100057AF606D40F00100606551E701276AE75C
:100A20002068416821F060014160606D20F48050D1
:100A30006065606DC0053FF57BAF606D40F0010003
:100A4000606575E7BDE8F081F8B54FF0000504007A
:100A50002E46009502D0606D10B107E00120F8BD70
:100A6000204600F0CBF8A66584F8506020688168C5
:100A7000C1F3407119B18168574A11408160206803
:100A80008168C1F3007189B98168544A114041F00D
:100A900080518160524853490068B0FBF1F040003A
:100AA000801C00E0401E00900028FBD12068816877
:100AB000C1F3007141B9616D41F010016165A16D33
:100AC00041F00101A165012501F0F3FE616DC90648
:100AD00000D430B1606D40F01000606501252846FB
:100AE000F8BD606D20F4807040F002006065206801
:100AF000806810F0010F0BD13B48806810F0010FA7
:100B000006D13A486168826822F47C120A43826006
:100B1000E168606B627E0843A16841EA42310843A4
:100B200094F8201040EA0140012904D1A18C304AF8
:100B300002EB41410843A16A29B101F47071E26AF4
:100B4000014342EA01002168CA682A4B1A40024365
:100B5000CA60206801F0ADFE0646206801F0A5FEDF
:100B6000304315D1207E94F83010800340EA4100D4
:100B70002168CA6844F202039A430243CA6094F8A7
:100B8000380001280CD02068016921F001010161C1
:100B9000206901282068016B21F00F0111D013E0BA
:100BA000D4E90F010843D4E9111211430843216825
:100BB0000A6940F2FC739A43104340F00100086157
:100BC000E6E7E269521E11430163606D20F0020006
:100BD00040F00100606582E7C0FFFF5FC0FFFF7F5C
:100BE0000C000020400D03000000045000030450DE
:100BF0000000FEFF07C0F0FF7047000070B59EB018
:100C00000546142117A8FFF7A8FB5C216846FFF7EB
:100C1000A4FB2C492868884251D14FF480400090B1
:100C2000800314900120019002901020039007206F
:100C30000490022005900690C0050790684600F0D9
:100C4000B7FD08B1FFF7FDFB1F49C86C40F4005029
:100C5000C864C86C00F400501C90C86C40F00400DC
:100C6000C864C86C002600F004001C900420179093
:100C70000B20CDE9180617A9144800F01BFA154CF3
:100C80001348C4E900068020A660C4E90360400060
:100C900060618000A0612020E061C00120622046E8
:100CA00000F096F908B1FFF7CCFBEC6401220321B8
:100CB0001220A56200F086FC122000F075FC1EB028
:100CC00070BD000000000450001002400008004801
:100CD00008000240740000202DE9F04704464079E6
:100CE00090460E4601280BD04FF0010984F805907C
:100CF00002202071316808F01005042903D045E076
:100D00000220BDE8F08700F0C5FA07465FEA080058
:100D10004FF0030805D01CE000F0BCFAC01B01280E
:100D20000FD82068406B0004F6D4012000F0B0F921
:100D30002168B069086416E000F0ACFAC01B012815
:100D400007D9206940F00800206184F8048003205E
:100D5000D7E72068406B0028EEDB012000F098F90F
:100D60002168B06948642068816C40F2FF32AA4073
:100D70009143F269AA40114381642168C86CFF2243
:100D8000AA409043326AAA401043C86430690128DF
:100D900008D12268916B1F20A84081437069A84048
:100DA000084390632268D16B0720A8408143B36851
:100DB00030681843F3681843A8400843D06320689C
:100DC00001684FF48042AA40914301602268106894
:100DD00040F6FC71A94088437168A9400143116045
:100DE00020680168C022AA409143016084F8049001
:100DF0000020607185E770B5040003D020790025DC
:100E000010B105E0012070BD6571204600F008F8C2
:100E100002202071256101202071002070BD00009A
:100E200010B586B0044614216846FFF796FA1149BA
:100E3000206888421BD11048816D41F000518165C6
:100E4000816D01F000510591C16C41F00101C16457
:100E5000C06C694600F0010005902020009003203E
:100E60000190002002904FF0904000F023F906B06E
:100E700010BD0000007400400010024010B590F852
:100E800025100022022905D00421C16380F8242006
:100E9000012010BD01680B6823F00E030B60016890
:100EA0000B6823F001030B6090F84410046C01F010
:100EB0001C03012101FA03F3636080F8251080F818
:100EC0002420104610BD10B590F8251000240229EA
:100ED00003D00421C16301241AE001680A6822F0EA
:100EE0000E020A6001680A6822F001020A6090F8A6
:100EF0004410036C01F01C02012101FA02F25A6055
:100F000080F82510002180F82410816B01B18847FA
:100F1000204610BDF0B4016C0C6801680D6890F8B3
:100F2000442002F01C06042202FA06F3234211D0E8
:100F30006B070FD50B689B0603D40B6823F00403E3
:100F40000B6090F8441001F01C018A40016C4A606B
:100F5000016B1DE0022303FA06F727424FF0000C55
:100F60004FF0010218D0AF0716D50C68A40605D4BF
:100F70000C6824F00A040C6080F8252090F84410D6
:100F800001F01C018B40016C4B6080F824C0C16AE9
:100F900000291AD0F0BC08470823B340234214D0DC
:100FA0002B0712D50B6823F00E030B6090F844104A
:100FB000036C01F01C0102FA01F15960C26380F870
:100FC000252080F824C0416BE2E7F0BC70470000A8
:100FD00070B568B12B4C036814212B4AA34209D287
:100FE0002A4C1C44B4FBF1F18900C0E910210BE04C
:100FF000012070BD234C64421C44B4FBF1F1890014
:101000004164204908390164022180F825101C68D8
:1010100047F6F0718C43D0E902152943D0E9045614
:101020003543294385692943C5692943056A29430D
:10103000214319608168B1F5804F19D0036C0F21ED
:10104000934202D152F8A83F02E00E4AA032136840
:1010500090F8444004F01C04A1408B43136090F8C6
:101060004430416803F01C03994013681943116030
:101070000021C163012280F8252080F82410084651
:1010800070BD00000804024000000240F8FFFDBFF0
:1010900070B5044600F0FEF80546601C02D0044816
:1010A0000078044400F0F6F8401BA042FAD370BD6B
:1010B000000000202DE9F04FDFF8AC91002303255C
:1010C000A9F1040B85B04FF0010C0F2709F1040AB8
:1010D000ABF1040EBFE000BF0CFA03F6324075D04E
:1010E0000C7904F00304012C01D0022C1BD184687C
:1010F00000945C0005FA04F80494009C24EA0804B7
:101100000094D1F80C80049C08FA04F8009C48EA8A
:101110000408C0F808804468B4430E79C6F300168A
:101120009E40264346600C79E443A4070AD0C46875
:101130004FEA430805FA08F6B4438E6806FA08F643
:101140002643C6600C7904F00304022C10D1DC089D
:1011500000EB84040294246A5E074FEAD66807FA1B
:1011600008F6B4430E6906FA08F62643029C266286
:1011700004684FEA430805FA08F6B4430E7906F00E
:10118000030606FA08F6264306604C6814F4403F4E
:1011900060D0364C266E46F001062666246E23F09B
:1011A000030604F001040094314C34440294A46812
:1011B0009E074FEA167807FA08F6B443B0F1904F4D
:1011C00005D02C4EB04204D1012612E042E00026A8
:1011D0000FE0294EB04201D102260AE0274EB0426C
:1011E00001D1032605E0264EB04201D1042600E0DD
:1011F000072606FA08F62643029CA660D9F8006086
:101200004C46D1F8048096435FEAC82800D51643BF
:101210002660DAF800405646D1F8048094435FEA2D
:10122000882800D514433460DBF800405E46D1F8CE
:10123000048094435FEA883800D514433460DEF8B4
:1012400000407646D1F8048094435FEAC83800D560
:10125000144334605B1C0A6832FA03F47FF43CAF39
:1012600005B000F00FB80000080401400010024073
:10127000000001400004004800080048000C00483D
:101280000010004830BCBDE8C08F0AB181617047D2
:1012900081627047014880687047000000000020AC
:1012A00090F84120202A24D190F84020012A20D013
:1012B000012280F84020242280F84120026813682F
:1012C00023F0010313600268136823F48053136052
:1012D000026813680B43136001680A6842F0010258
:1012E0000A60202180F84110002180F84010084653
:1012F00070470220704790F84120202A22D190F8B0
:101300004020012A1ED0012280F84020242280F8AB
:1013100041200268136823F0010313600268136818
:1013200023F4706343EA0121116001680A6842F006
:1013300001020A60202180F84110002180F840104D
:10134000084670470220704770B5040004D094F836
:101350004100002510B106E0012070BD84F8405026
:10136000204600F04DF8242084F8410020680168F0
:1013700021F0010101606068216820F0706008615F
:101380002068816821F400418160E0680128A0683C
:1013900007D040F4044021688860E068022803D048
:1013A00006E040F40040F6E721684FF40060486032
:1013B00020684168114A114341602068C16821F4E6
:1013C0000041C160D4E904010843A16940EA012059
:1013D0002168C860D4E907010843216808602068D3
:1013E000016841F0010101606564202084F841003A
:1013F000256384F84250002070BD00000080000288
:101400002DE9F0479EB00446142117A8FEF7A5FF6A
:101410005C216846FEF7A1FF36492068364C12274A
:101420000326DFF8D8A000254FF00409884222D116
:10143000402000900C95684600F0BAF908B1FFF71B
:1014400000F8E06C40F00200E064E06C19AA00F0E3
:1014500002001C90C020CDE9170782E8600217A99E
:101460005046FFF727FEA06D40F40010A065A06D68
:1014700000F4001039E02249884237D180150090ED
:101480000E95684600F094F908B1FEF7DAFFE06CBB
:1014900040F00100E064E06C00F001001C90E06CA2
:1014A00040F00200E064E06CB84600F002001C90DE
:1014B0008020CDE9170819AA4F4682E8E00017A955
:1014C0004FF09040FFF7F6FD1020CDE9170819AA5C
:1014D00017A982E8E0005046FFF7ECFDA06D40F44C
:1014E0000000A065A06D00F400001C901EB0BDE8D7
:1014F000F087000000540040001002400004004843
:10150000005C0040024881680278114481607047A5
:101510000000002010B50024032000F073F8032021
:1015200000F008F808B1012401E000F025F8204699
:1015300010BD000070B50E4E05460024307898B1FD
:101540004FF47A71B1FBF0F00A490968B1FBF0F091
:1015500000F032FF40B9102D06D200222946501E5D
:1015600000F030F8756000E00124204670BD0000F6
:10157000000000200C0000200A4882B0016E41F0FB
:1015800001010166016E01F001010091816D41F0E0
:1015900080518165806D00F080500090052002B080
:1015A00000F030B800100240002809DB00F01F02F4
:1015B000012191404009800000F1E020C0F80011B5
:1015C00070470000F0B40E4B1B680C46C3F30223B7
:1015D000C3F10705042D00D90425191D072901D2DF
:1015E000002300E0DB1E012606FA05F1491E21401A
:1015F00099409E40761E16403143F0BC02F03CB943
:101600000CED00E0064900F0070208684FF6FF0302
:10161000184040EA0220034A104308607047000067
:101620000CED00E00000FA051649B0F5007F0868EF
:10163000C0F3412009D0022805D0086820F4C0601A
:1016400040F480600860002070470128FBD00868E3
:1016500020F4C06040F4007008600B48322200683B
:1016600050430A4AB0FBF2F0401C00E0401E4A69B9
:10167000520501D50028F9D148694005E3D503207A
:1016800070470000007000400C00002040420F0036
:101690000248006800F4C06070470000007000401D
:1016A000F8B50446FFF7F6FD064624B194F841006C
:1016B000002510B109E00120F8BD84F84050204613
:1016C00000F042F841F28830A06420680168A26806
:1016D0006FF0FF0321F4706103EB022211430160FC
:1016E000A06C0090334600222021204601F0FEFC31
:1016F00010BBE269E16823791143226A42EA03627E
:101700001143226813680E4E334019431160D4E927
:1017100005121143226853680A4E3340268A43EA71
:1017200006431943516021680A6842F001020A60C9
:101730006564012184F8411084F84050F8BD000030
:101740002FFFFF00FEF8E0FF10B586B0044614211D
:101750006846FEF702FE1349206888421FD11248EE
:10176000016D41F480710165016D01F48071059195
:10177000C16C41F00201C164C06C694600F0020016
:10178000059040F603400090022001900020029056
:10179000032003900A2004900448FFF78BFC06B056
:1017A00010BD0000001000A000100240000400481E
:1017B0002DE9F84F044600270088A84D3E46000555
:1017C00015D5606C60B1B0F5000F04D0B0F5400FD6
:1017D0002BD001270AE0E86840F48030E86024E07C
:1017E0000021201D01F0A6FC07001ED03E46206807
:1017F00080033AD5A86D4FF00008C00009D4A86D49
:1018000040F08050A865A86D4FF0010800F08050AE
:101810000090DFF84CA2DAF8001041F48071CAF8A9
:101820000010FFF737FD814610E0D5F88800616CA5
:1018300020F440000843C5F88800D8E7FFF72AFDE8
:10184000A0EB0900022801D9032705E0DAF800001F
:10185000C005F3D5002F7DD04FEA0706B8F1000F81
:1018600003D0A86D20F08050A8652078C00707D06D
:10187000D5F88800216A20F003000843C5F88800E5
:101880002078800707D5D5F88800616A20F00C0021
:101890000843C5F888002078400707D5D5F88800A8
:1018A000A16A20F030000843C5F88800207880063F
:1018B00007D5D5F88800E16A20F440600843C5F8F0
:1018C00088002088800507D5D5F88800E16B20F4D2
:1018D00040200843C5F888002088400507D5D5F882
:1018E0008800216C20F440100843C5F88800207857
:1018F000400607D5D5F88800216B20F440500843F6
:10190000C5F888002078000607D5D5F88800616BF7
:1019100020F440400843C5F888002088C00507D55A
:10192000D5F88800A16B20F440300843C5F8880042
:1019300020684FF0006700034FF0806850D5D5F85D
:101940008800A16C20F040600843C5F88800A06CB6
:10195000B84200E005E03BD1E86840F48010E86060
:101960003EE0D5F8900010F4407014D0A16D814293
:1019700011D0D5F89000D5F8901020F4407041F4C3
:101980008031C5F89010D5F8901021F48031C5F859
:101990009010C5F89000C00711D0FFF77BFC0746F8
:1019A00041F2883907E000BFFFF774FCC11B4945CD
:1019B00001D9032652E7D5F890008007F4D5D5F871
:1019C0009000A16D20F440700843C5F8900045E7F1
:1019D000404505D10121201D01F0ACFB00B10646B8
:1019E0002068400317D5D5F88800E16C20F04060EE
:1019F0000843C5F88800E06CB84204D1E86840F4B8
:101A00008010E86007E0404505D10121201D01F06C
:101A100091FB00B106462088400411D5D5F8880016
:101A2000216D20F040500843C5F88800206DB0F1CA
:101A3000805F05D10221201D01F07CFB00B106462C
:101A40002088000406D555F8880F616D20F080408D
:101A500008432860304600F005B80000001002403E
:101A60000070004018BCBDE8E08F00002DE9F04791
:101A70000F4605006BD0494E306800F00700B842B1
:101A800009D2306820F0070038433060306800F039
:101A90000700B8425BD12878414C80070AD5A86876
:101AA000A16801F0F001884204D9A16821F0F00199
:101AB0000143A1602878C0072CD06868032811D0A2
:101AC000022812D0216898B1490500293FDAA1689F
:101AD00021F003010143A160FFF7DCFB804641F2E6
:101AE000883910E021688901EFE721688903ECE774
:101AF0008907EAE7FFF7CEFBA0EB0801494502D9C9
:101B00000320BDE8F087A068696800F00C00B0EB26
:101B1000810FEFD1287880070AD5A868A16801F065
:101B2000F001884204D2A16821F0F0010143A160D4
:101B3000306800F00700B8420BD9306820F0070089
:101B400038433060306800F00700B84201D001200F
:101B5000D7E72878400705D5A068E96820F4E06059
:101B60000843A0602878000706D5A068296920F4FA
:101B7000605040EAC100A06000F03EF8A168094A48
:101B8000C1F30311515C01F01F01C8400649086010
:101B900006480068BDE8F047FFF7CCBC00200240D3
:101BA00000100240103900080C0000200400002042
:101BB0000548064900688968054AC1F30221515C5D
:101BC00001F01F01C84070470C00002000100240C7
:101BD000503900080548064900688968054AC1F37C
:101BE000C221515C01F01F01C84070470C00002069
:101BF000001002405039000870B5254900231846EE
:101C00008A68CC6812F00C0204F00306214C4FEAFB
:101C1000640509D00C2A05D0042A32D0082A00D144
:101C2000284670BD012E10D10B681B0704D4D1F8D3
:101C30009430C3F3032302E00B68C3F30313164E7F
:101C400056F82330DAB10C2AEBD1C86800F0030053
:101C5000022818D0032818D01846CA68CB68C2F3E7
:101C60000212C3F306234343521CB3FBF2F2C868CB
:101C7000C0F34160401C4000B2FBF0F070BD18465C
:101C800070BD204670BD2046E7E72846E5E7000026
:101C9000001002400024F400203900082DE9F84328
:101CA00004006FD0FA4DA86800F00C06E86800F058
:101CB00003072078C00664D576B10C2E01D1012F20
:101CC0000AD0A069002828687AD040F00100286076
:101CD000FFF7E0FA80465DE02868800702D5A0693A
:101CE0000028DED0216A2868000703D5286800F0A4
:101CF000F00004E0D5F89400F02202EA10108142CE
:101D000016D9084601F0ACFA00283BD1286840F00B
:101D1000080028602868216A20F0F0000843286045
:101D20006868E16920F47F4040EA0120686016E0BD
:101D3000286840F0080028602868216A20F0F00038
:101D4000084328606868E16920F47F4040EA012088
:101D5000686026B9206A01F083FA0028D5D1FFF720
:101D60004BFFA968CB4AC1F30311515C01F01F017D
:101D7000C840C9490860C9480068FFF7DBFB002874
:101D80007ED12EE0CAE000BFFFF784FAA0EB080086
:101D9000022876D828688007F6D5286840F0080021
:101DA00028602868216A20F0F000084328606868ED
:101DB000E16920F47F4040EA0120686011E0FFE71C
:101DC00020F001002860FFF765FA804606E000BFBA
:101DD000FFF760FAA0EB08000228DAD8286880072D
:101DE000F6D42078C00740D0082E18D00C2E01D190
:101DF000032F14D06068B0F5803F17D0B0F5A02F46
:101E0000286817D020F480302860286820F48020CB
:101E100028606068E0B1FFF73DFA804614E028686A
:101E2000800322D56068002878D01EE0286840F43E
:101E30008030EDE740F480202860F7E7FFF72AFACA
:101E4000A0EB08006428A4D828688003F6D50CE02D
:101E5000FFF720FA804605E0FFF71CFAA0EB080028
:101E6000642896D828688003F6D4207880073BD56C
:101E7000042E11D00C2E01D1022F0DD0E06801E00C
:101E8000AAE1FFE0002828681ED040F48070286096
:101E9000FFF700FA07460CE0286840050CD5E0681B
:101EA0000028C1D008E000BFFFF7F4F9C01B0228EA
:101EB00093D828684005F7D56868217C20F0F85051
:101EC00040EA016068600FE020F480702860FFF74E
:101ED000E1F9074605E000BFFFF7DCF9C01B022867
:101EE000B1D828684005F7D42078000729D5606963
:101EF0000028D5F8940012D040F00100C5F89400F5
:101F0000FFF7C8F9074604E0FFF7C4F9C01B022831
:101F100099D8D5F894008007F6D512E02BE120F08F
:101F20000100C5F89400FFF7B5F9074605E000BFCA
:101F3000FFF7B0F9C01B022885D8D5F894008007B8
:101F4000F6D42078400766D5A86D0027C00008D4D5
:101F5000A86D40F08050A865A86D012700F0805062
:101F600000904F480168C90512D40168814641F4C8
:101F700080710160FFF78EF9804605E0FFF78AF96E
:101F8000A0EB080002287DD8D9F80000C005F5D5DF
:101F9000A068012816D00528D5F8900017D020F0A9
:101FA0000100C5F89000D5F8900020F0040000BFB3
:101FB000C5F89000A06841F28839C0B1FFF76AF90E
:101FC00080460FE0D5F8900040F00100F0E740F0C7
:101FD0000400C5F89000F5E7FFF75CF9A0EB0801F5
:101FE00049454FD8D5F890008007F5D50EE0FFF7AA
:101FF00051F9804606E000BFFFF74CF9A0EB08015D
:1020000049453FD8D5F890008007F5D41FB1A86D99
:1020100020F08050A8652078800628D5606A0028C6
:10202000D5F8980012D040F00100C5F89800FFF7ED
:1020300031F9074605E000BFFFF72CF9C01B022865
:1020400020D8D5F898008007F6D510E020F00100E0
:10205000C5F89800FFF71EF9074604E0FFF71AF9E4
:10206000C01B02280ED8D5F898008007F6D4A06AC5
:10207000F0B3022816D00C2E7DD0286820F0807096
:10208000286000E0A7E0FFF705F90446A6E000009D
:1020900000100240103900080C000020040000204D
:1020A00000700040E868E26A00F00301914228D124
:1020B000216B00F0700209011039914221D1626B4D
:1020C00000F4FE41B1EB022F1BD194F8382000F050
:1020D0007841B1EBC26F14D1A18F00F4C00249085E
:1020E0004905A1F5001191420BD194F8401000E090
:1020F0006AE04908490600F0C060A1F10071814220
:102100004BD00C2E73D02868400170D4286820F082
:1021100080702860FFF7BEF8064604E0FFF7BAF8C3
:10212000801B022857D828688001F7D4F4E90B01F6
:102130006FF00F0202EB01110843218A5204490893
:1021400002EB4151A26841EA02210843217D4FF090
:102150007E42490802EB41610843217B40EAC160AD
:10216000E968244A11400843E860286840F080701C
:102170002860E86800E03AE040F08070E860FFF72F
:1021800089F8044605E000BFFFF784F8001B022829
:1021900021D828688001F7D527E02868800124D459
:1021A000286840F080702860E86840F08070E8603F
:1021B000FFF770F8044604E0FFF76CF8001B0228F4
:1021C00009D828688001F7D50FE000BFFFF762F853
:1021D000001B022802D90320BDE8F883286880018B
:1021E000F4D4E86804490840E8600020F4E70120DE
:1021F000F2E700008C809D01FCFFEEFE70B504004C
:1022000009D0606A002540B125616561A56294F836
:102210005D0040B10CE0012070BD6068B0F5827FC8
:10222000F4D0E561F2E784F85C50204600F056F8FF
:10223000022084F85D002068016821F040010160FF
:10224000E1684FF4E062914201D9002001E04FF4CF
:102250008050B1F5706F02D0914200D0A562A18884
:10226000228901F4827102F404421143227C02F0BB
:1022700002021143227D02F001021143228B02F47B
:1022800000721143227F02F03802114394F820209B
:1022900002F080021143228D02F4005211432268A1
:1022A0001160A169042202EA114194F8242000F48B
:1022B000805002F01002114394F8342002F008021A
:1022C0001143A28902F47062114301432068416006
:1022D0002566012084F85D00002070BDF0B587B050
:1022E000044614216846FEF738F82E4B2268002574
:1022F0002D49022403264FF090409A4217D10A6ECE
:1023000042F480520A660A6E02F480520592CA6C48
:1023100042F00102CA64C96C01F00101059141F269
:1023200052018DE8720005210491694636E01F4B89
:102330009A4235D18A6D42F400428A658A6D02F470
:1023400000420592CA6C42F00102CA64CA6C02F0F3
:1023500001020592CA6C42F00402CA64CA6C02F01F
:1023600004020592CA6C42F00202CA64C96C0627D4
:1023700001F002010591D9138DE8F2006946FEF7DC
:1023800099FE4FF400608DE8F10069460848FEF7B9
:1023900091FE28208DE8F10069460648FEF78AFE86
:1023A00007B0F0BD0030014000100240003C00408A
:1023B000000800480004004810B5401EB0F1807FBE
:1023C00001D3012010BD4FF0E02460610F216017A0
:1023D00001F052FA0020A06107202061002010BD0A
:1023E00070477047704700002DE9F04102680446CD
:1023F000D0691168936840F60F0528424FF0000538
:1024000005D186067ED58E067CD5616E1BE1994F7F
:1024100003F001060F40374374D0C70709D0CF053A
:1024200007D501271762D4F8802042F00102C4F8D2
:10243000802082070AD5DA0708D0276802223A628C
:10244000D4F8802042F00402C4F8802042070AD564
:10245000DA0708D0236804221A62D4F8802042F0F8
:102460000202C4F8802002070CD501F0200232439A
:1024700008D0236808221A62D4F8802042F00802AB
:10248000C4F8802002050BD54A0109D523684FF412
:1024900000621A62D4F8802042F02002C4F8802042
:1024A000D4F88020002A35D0800605D5880603D5CB
:1024B000616E09B120468847D4F880002168896898
:1024C000490602D410F0280F26D0204600F0E8FF7D
:1024D0002068806840061AD52068083050E8001F40
:1024E00021F0400140E80012002AF5D1206F70B1C0
:1024F00061498163206FFEF7E6FC00280AD0206F57
:10250000816B01E00EE02046BDE8F041084720461F
:10251000FFF768FFBDE8F0812046FFF763FFC4F8CE
:102520008050F7E7276E2026012F7BD1C70679D58B
:10253000CF0677D51020106220688068400641D50C
:10254000216F086840680004000CE3D0B4F85820FC
:102550008242DFD9A4F85A000868006880062AD4AD
:10256000206850E8001F21F4807140E80012002A22
:10257000F6D12068083050E8001F21F0010140E842
:102580000012002AF5D12068083050E8001F21F021
:10259000400140E80012002AF5D1E667256621686F
:1025A00051E8000F20F0100041E80002002AF6D1A7
:1025B000206FFEF763FCB4F85800B4F85A10401AC4
:1025C00081B22AE0B4F85800B4F85A10401A81B227
:1025D000B4F85A0000289DD000299BD0226852E808
:1025E000000F20F4907042E80003002BF6D1206821
:1025F000083050E8002F22F0010240E80023002BB1
:10260000F5D1E66725666566226852E8000F20F07E
:10261000100042E80003002BF6D12046FFF7E0FE51
:1026200078E7FFE7C70209D55B0207D54FF48010B2
:1026300010622046BDE8F041FFF7D3BE020606D582
:102640000A0604D5A16E00297FF45DAF62E740065B
:10265000E6D54806E4D52046026852E8001F21F07E
:10266000400142E80013002BF6D18667856600F032
:10267000D3F84FE7200100048D34000810B50400A2
:1026800002D0A06F10B107E0012010BD002084F837
:102690007400204600F026F82420A0672068016816
:1026A00021F001010160204600F020FF0128ECD05C
:1026B000606A10B1204600F057FE2068416821F49E
:1026C000904141602068816821F02A018160206882
:1026D000016841F0010101602046BDE8104000F0B2
:1026E000A7BE00002DE9F0439DB00446142117A8B1
:1026F000FDF733FE5C216846FDF72FFE4149206857
:10270000414C0326072700254FF090494FF002085F
:1027100088421FD10120009008956846FFF748F8CD
:1027200008B1FDF78EFE206E40F480402066206EDA
:1027300000F480401C90E06C40F00100E064E06C2C
:1027400017A900F001001C904FF4C060CDE91708F4
:10275000484651E02D4988422DD16846CDF8008089
:102760000995FFF725F808B1FDF76BFEA06D40F461
:102770000030A065A06D00F400301C90E06C40F0CB
:102780000100E064E06C19AA00F001001C900C202C
:10279000CDE9170882E8E00017A94846FEF78AFC51
:1027A000022203212620FEF70DFF2620FEF7FCFE65
:1027B0001DB0BDE8F08316498842F9D104200A957E
:1027C00000906846FEF7F4FF08B1FDF73AFEA06DF1
:1027D00040F48020A065A06D00F480201C90E06C87
:1027E00040F00400E064E06C17A900F004001C90C5
:1027F0003020CDE91708074819AA82E8E000FEF763
:1028000059FCD5E700380140001002400044004068
:1028100000480040000800487047FEE770B54FF0E0
:102820009044012280212046FEF72FFD084D012211
:1028300010212846FEF729FD002210212846FEF728
:1028400024FD2046BDE8704000228021FEF71DBD1A
:102850000004004810B5012280214FF09040FEF79F
:1028600014FD064C002210212046FEF70EFD2046E6
:102870000122BDE810401021FEF707BD000400480A
:1028800010B54FF09044012280212046FEF7FDFC58
:1028900020460022BDE810408021FEF7F6BC00EB88
:1028A0008100006E00F0F84070478068C0F3C000FF
:1028B00070478068C0F380007047C06810F4406FB4
:1028C00001D00020704701207047042303EAD15350
:1028D00010B518444369C1F3045107248C40A34345
:1028E0008A401343436110BD00EB8100016E21F06B
:1028F000004111430166704730B587B01821684622
:10290000FDF72BFD184817490024C0E90014846026
:102910000425C460C0E90445047601214176C16103
:1029200080F820408462C46280F83040446380F8BC
:102930003840FEF789F808B1FDF783FD0B48009099
:102940000620019002907F200594CDE90305694699
:102950000548FDF77DFD002801D0FDF772FD07B0A9
:1029600030BD000000000450100000200800900C52
:1029700000B589B024216846FDF7EFFC0D490C48ED
:1029800008600846FEF737FA08B1FDF75AFD002047
:10299000009001900290039004901022694605482F
:1029A000FEF79AF9002801D0FDF74BFD09B000BDF4
:1029B00000740040BC000020094808B5816C41F05B
:1029C00001018164806C002200F00100009003216D
:1029D0000B20FEF7F7FDBDE808400B20FEF7E4BD35
:1029E000001002402DE9F04F87B014216846FDF732
:1029F000B4FC5348C16C41F00401C164C16C01F0E6
:102A000004010591C16C41F08001C164C16C01F009
:102A100080010591C16C41F00101C164C16C01F0FC
:102A200001010591C16C41F00201C164C16C01F06A
:102A300002010591C16C41F00801C164C06C4FF402
:102A40001B5400F008000590002221463D48FEF787
:102A50001CFC012208213B48FEF717FC40F201193B
:102A60004FF0904B002249465846FEF70EFC0122DB
:102A700004213548FEF709FC4FF4734A0022514601
:102A80003148FEF702FC009401240025CDE9014500
:102A900069462C480395FEF70DFB02260094CDE90C
:102AA0000165CDE9035469462648FEF703FB02AAF7
:102AB000009603274FF00808019682E8A0016946B6
:102AC0002048FEF7F7FACDE90084029469461D48D4
:102AD0000394FEF7EFFACDF80090CDE90145694681
:102AE00058460395FEF7E6FA4FF00408CDE9008456
:102AF0000294694614480394FEF7DCFACDF800A06E
:102B0000CDE90145694610480395FEF7D3FA4FF425
:102B10008850CDE900060C240295CDE9037469467E
:102B20000848FEF7C7FACDF80080CDE90374CDE977
:102B3000016569460548FEF7BDFA07B000F008B820
:102B4000001002400008004800040048000C004843
:102B500030BCBDE8C08F0000134810B511490160BA
:102B60001249416000210122C0E902120161416164
:102B70008161C1610162FEF7E7FB08B1FDF761FC0D
:102B800000210948FEF78CFB08B1FDF75AFC002133
:102B90000548FEF7B0FB002803D0BDE81040FDF764
:102BA00050BC10BD00540040D0000020EC9C9010A0
:102BB000134810B5114901601249416000210122FA
:102BC000C0E90212016141618161C1610162FEF7E8
:102BD000BBFB08B1FDF735FC00210948FEF760FB9F
:102BE00008B1FDF72EFC00210548FEF784FB002804
:102BF00003D0BDE81040FDF724BC10BD005C0040D0
:102C000024010020EC9C90100C4810B50A4901608A
:102C1000FF210122C0E901120021C0E90312416134
:102C20008161C1610162FEF73BFD002803D0BDE870
:102C30001040FDF706BC10BD001000A07801002078
:102C4000124810B5104901604FF4827141600021B3
:102C50004FF44072C0E902124FF480220161C0E9D2
:102C60000512C161016207224162C0E90A120163D3
:102C700008214163FFF7C2FA002803D0BDE81040E5
:102C8000FDF7DFBB10BD000000300140C401002093
:102C9000124810B5104901604FF482714160002163
:102CA0004FF44072C0E902124FF400720161C0E9B2
:102CB0000512C161016207224162C0E90A12016383
:102CC00008214163FFF79AFA002803D0BDE81040BD
:102CD000FDF7B7BB10BD0000003C004028020020FB
:102CE0000D4810B50B4901604FF4E13141600021FE
:102CF00081600C22C160C0E904128161C16101627E
:102D00004162FFF7BBFC002803D0BDE81040FDF78F
:102D100098BB10BD003801408C0200200D4810B552
:102D20000B4901604FF4E1314160002181600C22C8
:102D3000C160C0E904128161C16101624162FFF7B3
:102D40009DFC002803D0BDE81040FDF77ABB10BD04
:102D500000440040100300200D4810B50B490160ED
:102D60004FF4E1314160002181600C22C160C0E973
:102D700004128161C16101624162FFF77FFC00289A
:102D800003D0BDE81040FDF75CBB10BD004800401B
:102D900094030020FEE7FEE770B50024002104F153
:102DA000B00000F09CF90021084600F098F90021DD
:102DB000102000F094F900250121002000F08FF987
:102DC0006D1CEDB2802DF7D3641CE4B2082CE5D362
:102DD00070BD2DE9F0430D465C1B064690420CD1B8
:102DE000002706E0E819C1B2304600F031F87F1C38
:102DF000FFB2BC42F6DCBDE8F083971B9D420BD1CD
:102E0000002406E03019C0B2294600F021F8641C05
:102E1000E4B2A742F6DCEEE7E1B201EB8101490042
:102E2000F8B2B1FBF0F000F0FF0800244FF00A09FF
:102E30000BE014FB08F1B1FBF9F02844C1B23019E2
:102E4000C0B200F005F8641CE4B2A742F1DCD2E79E
:102E5000CA0801F0070301219940034B03EB8000EE
:102E6000835C0B4383547047180400202DE9F04124
:102E700086B014216846FDF770FA4A48C16C41F0EB
:102E80000101C164C16C01F001010591C16C41F007
:102E90000201C164C06CDFF8108100F002000590EF
:102EA000002210214046FEF7F0F94FF09047002233
:102EB00080213846FEF7E9F9802001240025032609
:102EC0008DE8710069463846FEF7F4F810208DE869
:102ED000710069464046FEF7EDF8C820FEF7D8F8C5
:102EE0000021AE2000F0FBF80021402000F0F7F8B0
:102EF0000021B02000F0F3F80021C82000F0EFF826
:102F00000021812000F0EBF80021FF2000F0E7F81D
:102F10000021A12000F0E3F80021A62000F0DFF856
:102F20000021A82000F0DBF800211F2000F0D7F8D6
:102F30000021D32000F0D3F80021084600F0CFF89C
:102F40000021D52000F0CBF80021F02000F0C7F8D8
:102F50000021D92000F0C3F80021222000F0BFF8A2
:102F60000021DA2000F0BBF80021022000F0B7F8C1
:102F70000021DB2000F0B3F80021492000F0AFF879
:102F800000218D2000F0ABF80021142000F0A7F8FC
:102F90000021AF2000F0A3F8FFF7FEFE06B0BDE869
:102FA000F0810000001002400004004870B5104E8F
:102FB0000024002104F1B00000F091F8002108463F
:102FC00000F08DF80021102000F089F85FF0000576
:102FD00006EB85000121005D00F081F86D1CEDB26B
:102FE000802DF5D3641CE4B2042CE2D370BD000044
:102FF0001804002010B50A460446002102F1B00072
:1030000000F06DF8102040EA1410002100F067F87D
:1030100004F00F00BDE81040002100F060B800008F
:103020002DE9F041203A00240D468046D6B27F2893
:1030300003D900208D1C8046EDB2102B294610D0FC
:10304000FFF7D8FF164906EB460001EB40050121CA
:10305000285D00F044F8641CE4B2062CF7D3BDE808
:10306000F081FFF7C7FF0F4F04EB06100121385C1A
:1030700000F035F8641CE4B2082CF5D36D1CE9B2FD
:103080004046FFF7B7FF002404EB06103844012147
:10309000007A00F024F8641CE4B2082CF4D3DEE7D4
:1030A00058390008803B00082DE9F0419846174642
:1030B0000E46044600250DE0434631462046FFF704
:1030C000AFFF0834E4B2782C02D90024B61CF6B263
:1030D0006D1CEDB27A5D002AEED1BDE8F081C0B280
:1030E00009B100F0B2BB00F099BB70472DE9F04187
:1030F000984616460F460446069D08E0681C06D012
:10310000FEF7C8F8A0EB0800A8420AD84DB1206825
:103110008068384000D00120B042EFD10020BDE8E7
:10312000F081042084F84100606C40F0010060648C
:103130000120F4E72DE9F041444C05468846E0685B
:103140000026810728680DD0E16801F00301814263
:1031500016D1A8B1E0686968C0F30210401C88422B
:103160000ED120E0012804D0022805D0032807D181
:1031700008E02168890701E021684905002907DB8B
:1031800001265FE02168890302D421684903F5E73D
:10319000E1686A686FF00F0321F0730103EB02121C
:1031A00011430143E160206820F080602060FEF759
:1031B00071F8074605E000BFFEF76CF8C01B022857
:1031C00037D820680001F7D4B8F1000F18D0B8F153
:1031D000010F1DD0287D4FF07E41400801EB40607B
:1031E000A96840EA01202169194A11400843206179
:1031F000206840F080602060FEF74CF807461AE037
:10320000A868297B000240EAC1602169114AECE705
:10321000288A1149400801EB4050A96840EA012082
:1032200021690E4AE1E700BFFEF734F8C01B02280F
:1032300001D9032606E020680001F5D52069A969B7
:10324000084320613046BDE8F081000000100240D4
:10325000FF80FFF9FF80FF070000E0FFFF809FFF76
:10326000F8B51C4D06460024A86DC00002D5FEF737
:103270000FFA0DE0A86D40F08050A865A86D00F031
:1032800080500090FEF704FAA96D21F08051A965E5
:10329000B0F5007F04D0802E07D94FF003040AE078
:1032A000802E08D9A02E01D804E001D1022402E02A
:1032B000702E00D101240848016821F00701214344
:1032C0000160006800F00700A04201D00120F8BDB5
:1032D0000020F8BD00100240002002407047FEF7B9
:1032E00011B910B596B044216846FDF736F814219F
:1032F00011A8FDF732F84FF40070FEF795F908B108
:1033000072B6FEE710200090012000246021069094
:10331000CDE907410221CDE90A100C9028200D903B
:103320000720CDE90E0168461091FEF7B7FC08B101
:1033300072B6FEE70F2011900320CDE91204149419
:10334000042111A81594FEF791FB002801D072B654
:10335000FEE716B010BD00000248016841F470019C
:103360000160704788ED00E090F82410C90706D08E
:1033700001684A68836A22F400321A434A6090F86E
:103380002410890706D501684A68C36A22F480328E
:103390001A434A6090F82410490706D501684A6824
:1033A000036B22F480221A434A6090F82410090724
:1033B00006D501684A68436B22F400421A434A600A
:1033C00090F82410C90606D501688A68836B22F438
:1033D00080521A438A6090F82410890606D5016845
:1033E0008A68C36B22F400521A438A6090F8241052
:1033F000490611D501684A68036C22F480121A4309
:103400004A60016CB1F5801F06D101684A68436CBF
:1034100022F4C0021A434A6090F82410090606D527
:1034200001684A68806C22F4002202434A607047B7
:10343000F8B500260446C0F88060FDF72BFF05466E
:10344000206800686FF07E47000708D52B460022F1
:103450004FF400112046009700F048F960B9206849
:10346000006840070AD52B4600224FF48001204611
:10347000009700F03BF908B10320F8BD2020A067B9
:10348000E067266684F874600020F8BD10B5806A95
:103490000021A0F85A10A0F85210FEF7A3FF10BDAB
:1034A000016851E8002F22F4907241E80023002BBC
:1034B000F6D10168083151E8002F22F0010241E8FD
:1034C0000023002BF5D1016E012908D1026852E8D2
:1034D000001F21F0100142E80013002BF6D120213B
:1034E000C167002101664166704700002DE9F04187
:1034F0000446016880682269E36910436269002517
:103500001A431043714F0A68714B1A4002430A6014
:1035100020684168E26821F440511143416021680C
:10352000A069B94201D0226A10438A6822F430624D
:1035300002438A606749236867488B420DD1D0F8FF
:10354000880010F0030006D0012847D0022843D09D
:10355000032830D144E001212EE060498B420BD199
:10356000D0F8880010F00C0034D0042836D0082899
:1035700032D00C281FD133E059498B420BD1D0F8FF
:10358000880010F0300025D0102827D0202823D024
:10359000302810D124E0BB420DD1D0F8880010F4BF
:1035A000406017D0B0F5806F18D0B0F5006F13D021
:1035B000B0F5406F14D010214A4A00264FF4004065
:1035C000BB422FD171B102290FD004290FD0082995
:1035D00073D10FE00021EFE70221EDE70421EBE7D3
:1035E0000821E9E7FEF7E4FA03E0104602E0FEF7FF
:1035F00003FBE8B3626802EB420181425DD8B0EBA5
:10360000023F5AD8010E03025008181871410023D6
:10361000FCF72CFE344AA0F5407191424DD8216848
:10362000C8604BE0E3694FF6EF77834228D1092960
:1036300043D2DFE801F005080B420D424242100080
:10364000FEF7B6FA06E0FEF7C5FA03E0104602E020
:10365000FEF7D2FA60B14100606801EB5001B1FBA6
:10366000F0F0A0F11001B94227D84FF6F07100E058
:1036700024E00140C0F3420001432068C1601DE026
:1036800009291AD2DFE801F005080B190D191919DB
:103690001000FEF78DFA06E0FEF79CFA03E01046F4
:1036A00002E0FEF7A9FA48B1616800EB5100B0FBF7
:1036B000F1F0A0F11001B94205D90125666628464E
:1036C000A666BDE8F08180B2A9E700000080004056
:1036D000F369FFEF00380140001002400044004051
:1036E000004800400024F400FFFC0F002DE9F047E3
:1036F0009A4617460E4604464FF000094FF0200840
:10370000089D4AE0681C48D0FDF7C4FDA0EB0A0004
:10371000A8422AD84DB32068016849073DD5C06941
:10372000C043000539D421684FF400600862206866
:1037300050E8001F21F4D07140E80012002AF6D1B1
:103740002068083050E8001F21F0010140E8001215
:10375000002AF5D1C4F87880C4F87C80C4F8808051
:1037600084F874900320BDE8F087216851E8000FC9
:1037700020F4D07041E80002002AF6D12068083019
:1037800050E8001F21F0010140E80012002AF5D1A5
:10379000C4F87880C4F87C80E2E72068C06936EA23
:1037A000000004D00020B842ACD00020DBE70120AC
:1037B000F9E700000148FEF717BE000010030020E3
:1037C000FEE700002DE9F04104464FF0904600224C
:1037D00080213046FDF759FD0F4F002504F0800091
:1037E000802816D0002210213846FDF74EFD6006D5
:1037F000040E012280213046FDF747FD0022802182
:103800003046FDF742FD6D1CEDB2082DE6D3BDE854
:10381000F0810122E7E700000004004810B50446EB
:10382000FEF7FCFF7820FFF7CDFFFFF729F8002017
:10383000FFF7C8FFFFF724F82046FFF7C3FFFFF7A5
:103840001FF8BDE81040FFF705B810B50446FEF7B5
:10385000E5FF7820FFF7B6FFFFF712F84020FFF7EB
:10386000B1FFFFF70DF82046FFF7ACFFFFF708F8B0
:10387000BDE81040FEF7EEBF0907090E002804DB83
:1038800000F1E02080F80014704700F00F0000F114
:10389000E02080F8141D7047FDF73CFEFFF721FD86
:1038A000FFF7A0F8FFF788F8FFF726F8FFF736FADA
:1038B000FFF75EF8FFF750F9FFF77AF9FFF7A4F981
:1038C000FFF7BEF9FFF7E4F9FFF70AFAFFF744FA4A
:1038D000FFF7CCFAFFF760FA08237F221946002091
:1038E000FFF777FAFFF762FB102303A20221002003
:1038F000FFF7DAFBFEE7000048656C6C6F2057723B
:103900006F6C64004FF04070E1EE100A70470000E9
:10391000000000000000000001020304060708097F
:10392000A0860100400D0300801A060000350C003F
:1039300040420F0080841E0000093D0000127A0002
:103940000024F40000366E010048E801006CDC023F
:10395000000000000102030400000000000000005D
:10396000002F000000000700070000147F147F14E0
:1039700000242A7F2A120062640813230036495566
:10398000225000000503000000001C22410000003E
:1039900041221C000014083E08140008083E0808D4
:1039A000000000A06000000808080808000060602F
:1039B0000000002010080402003E5149453E00006E
:1039C000427F4000004261514946002141454B3150
:1039D000001814127F10002745454539003C4A491C
:1039E000493000017109050300364949493600068E
:1039F0004949291E000036360000000056360000F6
:103A00000008142241000014141414140000412270
:103A1000140800020151090600324959513E007C48
:103A20001211127C007F49494936003E4141412232
:103A3000007F4141221C007F49494941007F09091B
:103A40000901003E4149497A007F0808087F0000CB
:103A5000417F4100002040413F01007F0814224186
:103A6000007F40404040007F020C027F007F04083E
:103A7000107F003E4141413E007F09090906003E9A
:103A80004151215E007F09192946004649494931C3
:103A90000001017F0101003F4040403F001F2040E6
:103AA000201F003F4038403F0063140814630007A4
:103AB0000870080700615149454300007F414100FB
:103AC00000552A552A55000041417F00000402019B
:103AD0000204004040404040000001020400002079
:103AE00054545478007F48444438003844444420B7
:103AF00000384444487F00385454541800087E0964
:103B000001020018A4A4A47C007F0804047800002B
:103B1000447D4000004080847D00007F10284400E8
:103B20000000417F4000007C04180478007C0804F9
:103B3000047800384444443800FC24242418001835
:103B4000242418FC007C0804040800485454542021
:103B500000043F444020003C4040207C001C2040AA
:103B6000201C003C4030403C004428102844001CED
:103B7000A0A0A07C004464544C44141414141414E5
:103B80000000000000000000000000000000000035
:103B9000000000F8000000000000003330000000CA
:103BA00000100C06100C06000000000000000000D1
:103BB00040C07840C0784000043F04043F04040043
:103BC000007088FC08300000001820FF211E000053
:103BD000F008F000E018000000211C031E211E0068
:103BE00000F00888700000001E21232419272110EE
:103BF00010160E0000000000000000000000000091
:103C0000000000E018040200000000071820400037
:103C100000020418E0000000004020180700000027
:103C2000404080F0804040000202010F010202008B
:103C3000000000F0000000000101011F010101006F
:103C4000000000000000000080B0700000000000D4
:103C5000000000000000000000010101010101015D
:103C600000000000000000000030300000000000F4
:103C700000000000806018040060180601000000C9
:103C800000E010080810E000000F102020100F00C6
:103C9000001010F8000000000020203F202000004D
:103CA00000700808088870000030282422213000A5
:103CB00000300888884830000018202020110E00AD
:103CC0000000C02010F8000000070424243F240056
:103CD00000F80888880808000019212020110E002B
:103CE00000E0108888180000000F112020110E003D
:103CF00000380808C83808000000003F0000000035
:103D00000070880808887000001C222121221C00F5
:103D100000E010080810E0000000312222110F001E
:103D2000000000C0C00000000000003030000000B3
:103D30000000008000000000000080600000000023
:103D4000000080402010080000010204081020003C
:103D50004040404040404000040404040404040087
:103D6000000810204080000000201008040201001C
:103D7000007048080808F00000000030360100001C
:103D8000C030C828E810E0000718272423140B00CF
:103D90000000C038E0000000203C23020227382049
:103DA00008F8888888700000203F202020110E002D
:103DB000C030080808083800071820202010080024
:103DC00008F808080810E000203F202020100F000D
:103DD00008F88888E8081000203F202023201800D9
:103DE00008F88888E8081000203F20000300000041
:103DF000C03008080838000007182020221E0200E2
:103E000008F808000008F808203F210101213F20A0
:103E1000000808F8080800000020203F20200000CB
:103E200000000808F8080800C08080807F000000BB
:103E300008F888C028180800203F200126382000F4
:103E400008F8080000000000203F2020202030005B
:103E500008F8F800F8F80800203F003F003F200075
:103E600008F830C00008F808203F200007183F007D
:103E7000E01008080810E0000F10202020100F00AC
:103E800008F808080808F000203F2101010100009F
:103E9000E01008080810E0000F18242438504F00E4
:103EA00008F8888888887000203F2000030C3020A4
:103EB00000708808080838000038202121221C00E2
:103EC000180808F8080818000000203F200000002B
:103ED00008F808000008F808001F202020201F0014
:103EE0000878880000C83808000007380E01000074
:103EF000F80800F80008F800033C0700073C03003E
:103F0000081868808068180820302C03032C3020A3
:103F10000838C800C83808000000203F2000000012
:103F200010080808C838080020382621202018006A
:103F3000000000FE020202000000007F404040003E
:103F4000000C30C000000000000000010638C00076
:103F500000020202FE000000004040407F0000001E
:103F60000000040202020400000000000000000043
:103F70000000000000000000808080808080808041
:103F80000002020400000000000000000000000029
:103F900000008080808000000019242222223F201F
:103FA00008F8008080000000003F112020110E0062
:103FB0000000008080800000000E112020201100F1
:103FC000000000808088F800000E112020103F20A3
:103FD0000000808080800000001F22222222130027
:103FE000008080F0888888180020203F2020000072
:103FF0000000808080808000006B94949493600027
:1040000008F8008080800000203F210000203F2031
:1040100000809898000000000020203F2020000031
:10402000000000809898000000C08080807F000021
:1040300008F8000080808000203F24022D302000FE
:10404000000808F8000000000020203F20200000A9
:104050008080808080808000203F20003F20003FC3
:104060008080008080800000203F210000203F20D1
:104070000000808080800000001F202020201F0082
:10408000808000808000000080FFA12020110E00B1
:104090000000008080808000000E112020A0FF80A2
:1040A000808080008080800020203F21200001004F
:1040B00000008080808080000033242424241900A4
:1040C000008080E0808000000000001F20200000B1
:1040D0008080000000808000001F202020103F20F2
:1040E000808080000080808000010E300806010082
:1040F00080800080008080800F300C030C300F0027
:1041000000808000808080000020312E0E31200051
:10411000808080000080808080818E701806010081
:1041200000808080808080000021302C222130009F
:1041300000000000807C020200000000003F4040C0
:1041400000000000FF00000000000000FF00000071
:104150000002027C800000000040403F00000000A0
:10416000000601010202040400000000000000003B
:10417000904100080000002010000000C801000865
:10418000A041000810000020A80C0000E401000875
:1041900001000000100000000000000000093D00C8
:040000050800018D61
:00000001FF
